{
  "_format": "hh-sol-artifact-1",
  "contractName": "NFT",
  "sourceName": "contracts/NFT.sol",
  "abi": [
    {
      "inputs": [
        {
          "internalType": "address",
          "name": "minter",
          "type": "address"
        },
        {
          "internalType": "address",
          "name": "burner",
          "type": "address"
        },
        {
          "internalType": "address",
          "name": "uri",
          "type": "address"
        },
        {
          "internalType": "address",
          "name": "admin",
          "type": "address"
        },
        {
          "internalType": "string",
          "name": "_baseTokenURI",
          "type": "string"
        }
      ],
      "stateMutability": "nonpayable",
      "type": "constructor"
    },
    {
      "anonymous": false,
      "inputs": [
        {
          "indexed": true,
          "internalType": "address",
          "name": "owner",
          "type": "address"
        },
        {
          "indexed": true,
          "internalType": "address",
          "name": "approved",
          "type": "address"
        },
        {
          "indexed": true,
          "internalType": "uint256",
          "name": "tokenId",
          "type": "uint256"
        }
      ],
      "name": "Approval",
      "type": "event"
    },
    {
      "anonymous": false,
      "inputs": [
        {
          "indexed": true,
          "internalType": "address",
          "name": "owner",
          "type": "address"
        },
        {
          "indexed": true,
          "internalType": "address",
          "name": "operator",
          "type": "address"
        },
        {
          "indexed": false,
          "internalType": "bool",
          "name": "approved",
          "type": "bool"
        }
      ],
      "name": "ApprovalForAll",
      "type": "event"
    },
    {
      "anonymous": false,
      "inputs": [
        {
          "indexed": true,
          "internalType": "address",
          "name": "delegator",
          "type": "address"
        },
        {
          "indexed": true,
          "internalType": "address",
          "name": "fromDelegate",
          "type": "address"
        },
        {
          "indexed": true,
          "internalType": "address",
          "name": "toDelegate",
          "type": "address"
        }
      ],
      "name": "DelegateChanged",
      "type": "event"
    },
    {
      "anonymous": false,
      "inputs": [
        {
          "indexed": true,
          "internalType": "address",
          "name": "delegate",
          "type": "address"
        },
        {
          "indexed": false,
          "internalType": "uint256",
          "name": "previousBalance",
          "type": "uint256"
        },
        {
          "indexed": false,
          "internalType": "uint256",
          "name": "newBalance",
          "type": "uint256"
        }
      ],
      "name": "DelegateVotesChanged",
      "type": "event"
    },
    {
      "anonymous": false,
      "inputs": [
        {
          "indexed": true,
          "internalType": "bytes32",
          "name": "role",
          "type": "bytes32"
        },
        {
          "indexed": true,
          "internalType": "bytes32",
          "name": "previousAdminRole",
          "type": "bytes32"
        },
        {
          "indexed": true,
          "internalType": "bytes32",
          "name": "newAdminRole",
          "type": "bytes32"
        }
      ],
      "name": "RoleAdminChanged",
      "type": "event"
    },
    {
      "anonymous": false,
      "inputs": [
        {
          "indexed": true,
          "internalType": "bytes32",
          "name": "role",
          "type": "bytes32"
        },
        {
          "indexed": true,
          "internalType": "address",
          "name": "account",
          "type": "address"
        },
        {
          "indexed": true,
          "internalType": "address",
          "name": "sender",
          "type": "address"
        }
      ],
      "name": "RoleGranted",
      "type": "event"
    },
    {
      "anonymous": false,
      "inputs": [
        {
          "indexed": true,
          "internalType": "bytes32",
          "name": "role",
          "type": "bytes32"
        },
        {
          "indexed": true,
          "internalType": "address",
          "name": "account",
          "type": "address"
        },
        {
          "indexed": true,
          "internalType": "address",
          "name": "sender",
          "type": "address"
        }
      ],
      "name": "RoleRevoked",
      "type": "event"
    },
    {
      "anonymous": false,
      "inputs": [
        {
          "indexed": true,
          "internalType": "address",
          "name": "from",
          "type": "address"
        },
        {
          "indexed": true,
          "internalType": "address",
          "name": "to",
          "type": "address"
        },
        {
          "indexed": true,
          "internalType": "uint256",
          "name": "tokenId",
          "type": "uint256"
        }
      ],
      "name": "Transfer",
      "type": "event"
    },
    {
      "inputs": [],
      "name": "ADMIN_ROLE",
      "outputs": [
        {
          "internalType": "bytes32",
          "name": "",
          "type": "bytes32"
        }
      ],
      "stateMutability": "view",
      "type": "function"
    },
    {
      "inputs": [],
      "name": "BURNER_ROLE",
      "outputs": [
        {
          "internalType": "bytes32",
          "name": "",
          "type": "bytes32"
        }
      ],
      "stateMutability": "view",
      "type": "function"
    },
    {
      "inputs": [],
      "name": "DEFAULT_ADMIN_ROLE",
      "outputs": [
        {
          "internalType": "bytes32",
          "name": "",
          "type": "bytes32"
        }
      ],
      "stateMutability": "view",
      "type": "function"
    },
    {
      "inputs": [],
      "name": "DOMAIN_SEPARATOR",
      "outputs": [
        {
          "internalType": "bytes32",
          "name": "",
          "type": "bytes32"
        }
      ],
      "stateMutability": "view",
      "type": "function"
    },
    {
      "inputs": [],
      "name": "MINTER_ROLE",
      "outputs": [
        {
          "internalType": "bytes32",
          "name": "",
          "type": "bytes32"
        }
      ],
      "stateMutability": "view",
      "type": "function"
    },
    {
      "inputs": [],
      "name": "URI_ROLE",
      "outputs": [
        {
          "internalType": "bytes32",
          "name": "",
          "type": "bytes32"
        }
      ],
      "stateMutability": "view",
      "type": "function"
    },
    {
      "inputs": [
        {
          "internalType": "string",
          "name": "_baseTokenUri",
          "type": "string"
        }
      ],
      "name": "_setTokenURI",
      "outputs": [],
      "stateMutability": "nonpayable",
      "type": "function"
    },
    {
      "inputs": [
        {
          "internalType": "address",
          "name": "to",
          "type": "address"
        },
        {
          "internalType": "uint256",
          "name": "tokenId",
          "type": "uint256"
        }
      ],
      "name": "approve",
      "outputs": [],
      "stateMutability": "nonpayable",
      "type": "function"
    },
    {
      "inputs": [
        {
          "internalType": "address",
          "name": "owner",
          "type": "address"
        }
      ],
      "name": "balanceOf",
      "outputs": [
        {
          "internalType": "uint256",
          "name": "",
          "type": "uint256"
        }
      ],
      "stateMutability": "view",
      "type": "function"
    },
    {
      "inputs": [
        {
          "internalType": "uint256",
          "name": "tokenId",
          "type": "uint256"
        }
      ],
      "name": "burn",
      "outputs": [],
      "stateMutability": "nonpayable",
      "type": "function"
    },
    {
      "inputs": [
        {
          "internalType": "address",
          "name": "delegatee",
          "type": "address"
        }
      ],
      "name": "delegate",
      "outputs": [],
      "stateMutability": "nonpayable",
      "type": "function"
    },
    {
      "inputs": [
        {
          "internalType": "address",
          "name": "delegatee",
          "type": "address"
        },
        {
          "internalType": "uint256",
          "name": "nonce",
          "type": "uint256"
        },
        {
          "internalType": "uint256",
          "name": "expiry",
          "type": "uint256"
        },
        {
          "internalType": "uint8",
          "name": "v",
          "type": "uint8"
        },
        {
          "internalType": "bytes32",
          "name": "r",
          "type": "bytes32"
        },
        {
          "internalType": "bytes32",
          "name": "s",
          "type": "bytes32"
        }
      ],
      "name": "delegateBySig",
      "outputs": [],
      "stateMutability": "nonpayable",
      "type": "function"
    },
    {
      "inputs": [
        {
          "internalType": "address",
          "name": "account",
          "type": "address"
        }
      ],
      "name": "delegates",
      "outputs": [
        {
          "internalType": "address",
          "name": "",
          "type": "address"
        }
      ],
      "stateMutability": "view",
      "type": "function"
    },
    {
      "inputs": [
        {
          "internalType": "uint256",
          "name": "tokenId",
          "type": "uint256"
        }
      ],
      "name": "getApproved",
      "outputs": [
        {
          "internalType": "address",
          "name": "",
          "type": "address"
        }
      ],
      "stateMutability": "view",
      "type": "function"
    },
    {
      "inputs": [
        {
          "internalType": "uint256",
          "name": "blockNumber",
          "type": "uint256"
        }
      ],
      "name": "getPastTotalSupply",
      "outputs": [
        {
          "internalType": "uint256",
          "name": "",
          "type": "uint256"
        }
      ],
      "stateMutability": "view",
      "type": "function"
    },
    {
      "inputs": [
        {
          "internalType": "address",
          "name": "account",
          "type": "address"
        },
        {
          "internalType": "uint256",
          "name": "blockNumber",
          "type": "uint256"
        }
      ],
      "name": "getPastVotes",
      "outputs": [
        {
          "internalType": "uint256",
          "name": "",
          "type": "uint256"
        }
      ],
      "stateMutability": "view",
      "type": "function"
    },
    {
      "inputs": [
        {
          "internalType": "bytes32",
          "name": "role",
          "type": "bytes32"
        }
      ],
      "name": "getRoleAdmin",
      "outputs": [
        {
          "internalType": "bytes32",
          "name": "",
          "type": "bytes32"
        }
      ],
      "stateMutability": "view",
      "type": "function"
    },
    {
      "inputs": [
        {
          "internalType": "address",
          "name": "account",
          "type": "address"
        }
      ],
      "name": "getVotes",
      "outputs": [
        {
          "internalType": "uint256",
          "name": "",
          "type": "uint256"
        }
      ],
      "stateMutability": "view",
      "type": "function"
    },
    {
      "inputs": [
        {
          "internalType": "bytes32",
          "name": "role",
          "type": "bytes32"
        },
        {
          "internalType": "address",
          "name": "account",
          "type": "address"
        }
      ],
      "name": "grantRole",
      "outputs": [],
      "stateMutability": "nonpayable",
      "type": "function"
    },
    {
      "inputs": [
        {
          "internalType": "bytes32",
          "name": "role",
          "type": "bytes32"
        },
        {
          "internalType": "address",
          "name": "account",
          "type": "address"
        }
      ],
      "name": "hasRole",
      "outputs": [
        {
          "internalType": "bool",
          "name": "",
          "type": "bool"
        }
      ],
      "stateMutability": "view",
      "type": "function"
    },
    {
      "inputs": [
        {
          "internalType": "address",
          "name": "owner",
          "type": "address"
        },
        {
          "internalType": "address",
          "name": "operator",
          "type": "address"
        }
      ],
      "name": "isApprovedForAll",
      "outputs": [
        {
          "internalType": "bool",
          "name": "",
          "type": "bool"
        }
      ],
      "stateMutability": "view",
      "type": "function"
    },
    {
      "inputs": [
        {
          "internalType": "address",
          "name": "recipient",
          "type": "address"
        }
      ],
      "name": "mintNFT",
      "outputs": [
        {
          "internalType": "uint256",
          "name": "",
          "type": "uint256"
        }
      ],
      "stateMutability": "nonpayable",
      "type": "function"
    },
    {
      "inputs": [],
      "name": "name",
      "outputs": [
        {
          "internalType": "string",
          "name": "",
          "type": "string"
        }
      ],
      "stateMutability": "view",
      "type": "function"
    },
    {
      "inputs": [
        {
          "internalType": "address",
          "name": "owner",
          "type": "address"
        }
      ],
      "name": "nonces",
      "outputs": [
        {
          "internalType": "uint256",
          "name": "",
          "type": "uint256"
        }
      ],
      "stateMutability": "view",
      "type": "function"
    },
    {
      "inputs": [
        {
          "internalType": "uint256",
          "name": "tokenId",
          "type": "uint256"
        }
      ],
      "name": "ownerOf",
      "outputs": [
        {
          "internalType": "address",
          "name": "",
          "type": "address"
        }
      ],
      "stateMutability": "view",
      "type": "function"
    },
    {
      "inputs": [
        {
          "internalType": "bytes32",
          "name": "role",
          "type": "bytes32"
        },
        {
          "internalType": "address",
          "name": "account",
          "type": "address"
        }
      ],
      "name": "renounceRole",
      "outputs": [],
      "stateMutability": "nonpayable",
      "type": "function"
    },
    {
      "inputs": [
        {
          "internalType": "bytes32",
          "name": "role",
          "type": "bytes32"
        },
        {
          "internalType": "address",
          "name": "account",
          "type": "address"
        }
      ],
      "name": "revokeRole",
      "outputs": [],
      "stateMutability": "nonpayable",
      "type": "function"
    },
    {
      "inputs": [
        {
          "internalType": "address",
          "name": "from",
          "type": "address"
        },
        {
          "internalType": "address",
          "name": "to",
          "type": "address"
        },
        {
          "internalType": "uint256",
          "name": "tokenId",
          "type": "uint256"
        }
      ],
      "name": "safeTransferFrom",
      "outputs": [],
      "stateMutability": "nonpayable",
      "type": "function"
    },
    {
      "inputs": [
        {
          "internalType": "address",
          "name": "from",
          "type": "address"
        },
        {
          "internalType": "address",
          "name": "to",
          "type": "address"
        },
        {
          "internalType": "uint256",
          "name": "tokenId",
          "type": "uint256"
        },
        {
          "internalType": "bytes",
          "name": "data",
          "type": "bytes"
        }
      ],
      "name": "safeTransferFrom",
      "outputs": [],
      "stateMutability": "nonpayable",
      "type": "function"
    },
    {
      "inputs": [
        {
          "internalType": "address",
          "name": "operator",
          "type": "address"
        },
        {
          "internalType": "bool",
          "name": "approved",
          "type": "bool"
        }
      ],
      "name": "setApprovalForAll",
      "outputs": [],
      "stateMutability": "nonpayable",
      "type": "function"
    },
    {
      "inputs": [
        {
          "internalType": "bytes4",
          "name": "interfaceId",
          "type": "bytes4"
        }
      ],
      "name": "supportsInterface",
      "outputs": [
        {
          "internalType": "bool",
          "name": "",
          "type": "bool"
        }
      ],
      "stateMutability": "view",
      "type": "function"
    },
    {
      "inputs": [],
      "name": "symbol",
      "outputs": [
        {
          "internalType": "string",
          "name": "",
          "type": "string"
        }
      ],
      "stateMutability": "view",
      "type": "function"
    },
    {
      "inputs": [
        {
          "internalType": "uint256",
          "name": "index",
          "type": "uint256"
        }
      ],
      "name": "tokenByIndex",
      "outputs": [
        {
          "internalType": "uint256",
          "name": "",
          "type": "uint256"
        }
      ],
      "stateMutability": "view",
      "type": "function"
    },
    {
      "inputs": [
        {
          "internalType": "address",
          "name": "owner",
          "type": "address"
        },
        {
          "internalType": "uint256",
          "name": "index",
          "type": "uint256"
        }
      ],
      "name": "tokenOfOwnerByIndex",
      "outputs": [
        {
          "internalType": "uint256",
          "name": "",
          "type": "uint256"
        }
      ],
      "stateMutability": "view",
      "type": "function"
    },
    {
      "inputs": [
        {
          "internalType": "uint256",
          "name": "tokenId",
          "type": "uint256"
        }
      ],
      "name": "tokenURI",
      "outputs": [
        {
          "internalType": "string",
          "name": "",
          "type": "string"
        }
      ],
      "stateMutability": "view",
      "type": "function"
    },
    {
      "inputs": [],
      "name": "totalSupply",
      "outputs": [
        {
          "internalType": "uint256",
          "name": "",
          "type": "uint256"
        }
      ],
      "stateMutability": "view",
      "type": "function"
    },
    {
      "inputs": [
        {
          "internalType": "address",
          "name": "from",
          "type": "address"
        },
        {
          "internalType": "address",
          "name": "to",
          "type": "address"
        },
        {
          "internalType": "uint256",
          "name": "tokenId",
          "type": "uint256"
        }
      ],
      "name": "transferFrom",
      "outputs": [],
      "stateMutability": "nonpayable",
      "type": "function"
    }
  ],
  "bytecode": "0x6101406040523480156200001257600080fd5b506040516200685b3803806200685b8339818101604052810190620000389190620005c4565b6040518060400160405280600781526020017f5043432044414f000000000000000000000000000000000000000000000000008152506040518060400160405280600381526020017f312e3000000000000000000000000000000000000000000000000000000000008152506040518060400160405280601781526020017f54455354315043432044414f204d656d626572736869700000000000000000008152506040518060400160405280600581526020017f54315043430000000000000000000000000000000000000000000000000000008152508160009080519060200190620001289291906200047f565b508060019080519060200190620001419291906200047f565b50505060008280519060200120905060008280519060200120905060007f8b73c3c69bb8fe3d512ecc4cf759cc79239f7b179b0ffacaa9a75d522b39400f90508260e081815250508161010081815250504660a08181525050620001ad818484620002c860201b60201c565b608081815250503073ffffffffffffffffffffffffffffffffffffffff1660c08173ffffffffffffffffffffffffffffffffffffffff1660601b8152505080610120818152505050505050506200022b7f9f2df0fed2c77648de5860a4cc508cd0818c85b8b8a1ab4ceeef8d981c8956a6866200030460201b60201c565b6200025d7f3c11d16cbaffd01df69ce1c404f6340ee057498f5f00246190ea54220576a848856200030460201b60201c565b6200028f7f8e6595ef9afb2a8f70320f393f567bb7a0e6c4ed483caee30f90cc5fcd6659b4846200030460201b60201c565b620002a46000801b836200030460201b60201c565b8060109080519060200190620002bc9291906200047f565b505050505050620008e1565b60008383834630604051602001620002e59594939291906200069e565b6040516020818303038152906040528051906020012090509392505050565b6200031682826200031a60201b60201c565b5050565b6200032c82826200040c60201b60201c565b62000408576001600a600084815260200190815260200160002060000160008373ffffffffffffffffffffffffffffffffffffffff1673ffffffffffffffffffffffffffffffffffffffff16815260200190815260200160002060006101000a81548160ff021916908315150217905550620003ad6200047760201b60201c565b73ffffffffffffffffffffffffffffffffffffffff168173ffffffffffffffffffffffffffffffffffffffff16837f2f8788117e7eff1d82e926ec794901d17c78024a50270940304540a733656f0d60405160405180910390a45b5050565b6000600a600084815260200190815260200160002060000160008373ffffffffffffffffffffffffffffffffffffffff1673ffffffffffffffffffffffffffffffffffffffff16815260200190815260200160002060009054906101000a900460ff16905092915050565b600033905090565b8280546200048d90620007d8565b90600052602060002090601f016020900481019282620004b15760008555620004fd565b82601f10620004cc57805160ff1916838001178555620004fd565b82800160010185558215620004fd579182015b82811115620004fc578251825591602001919060010190620004df565b5b5090506200050c919062000510565b5090565b5b808211156200052b57600081600090555060010162000511565b5090565b600062000546620005408462000724565b620006fb565b905082815260208101848484011115620005655762000564620008a7565b5b62000572848285620007a2565b509392505050565b6000815190506200058b81620008c7565b92915050565b600082601f830112620005a957620005a8620008a2565b5b8151620005bb8482602086016200052f565b91505092915050565b600080600080600060a08688031215620005e357620005e2620008b1565b5b6000620005f3888289016200057a565b955050602062000606888289016200057a565b945050604062000619888289016200057a565b93505060606200062c888289016200057a565b925050608086015167ffffffffffffffff81111562000650576200064f620008ac565b5b6200065e8882890162000591565b9150509295509295909350565b62000676816200075a565b82525050565b62000687816200076e565b82525050565b620006988162000798565b82525050565b600060a082019050620006b560008301886200067c565b620006c460208301876200067c565b620006d360408301866200067c565b620006e260608301856200068d565b620006f160808301846200066b565b9695505050505050565b6000620007076200071a565b90506200071582826200080e565b919050565b6000604051905090565b600067ffffffffffffffff82111562000742576200074162000873565b5b6200074d82620008b6565b9050602081019050919050565b6000620007678262000778565b9050919050565b6000819050919050565b600073ffffffffffffffffffffffffffffffffffffffff82169050919050565b6000819050919050565b60005b83811015620007c2578082015181840152602081019050620007a5565b83811115620007d2576000848401525b50505050565b60006002820490506001821680620007f157607f821691505b6020821081141562000808576200080762000844565b5b50919050565b6200081982620008b6565b810181811067ffffffffffffffff821117156200083b576200083a62000873565b5b80604052505050565b7f4e487b7100000000000000000000000000000000000000000000000000000000600052602260045260246000fd5b7f4e487b7100000000000000000000000000000000000000000000000000000000600052604160045260246000fd5b600080fd5b600080fd5b600080fd5b600080fd5b6000601f19601f8301169050919050565b620008d2816200075a565b8114620008de57600080fd5b50565b60805160a05160c05160601c60e0516101005161012051615f27620009346000396000611b8701526000611bc901526000611ba801526000611add01526000611b3301526000611b5c0152615f276000f3fe608060405234801561001057600080fd5b50600436106102275760003560e01c8063587cde1e1161013057806395d89b41116100b8578063c3cda5201161007c578063c3cda520146106d4578063c87b56dd146106f0578063d539139314610720578063d547741f1461073e578063e985e9c51461075a57610227565b806395d89b41146106305780639ab24eb01461064e578063a217fddf1461067e578063a22cb4651461069c578063b88d4fde146106b857610227565b806375b238fc116100ff57806375b238fc146105665780637ecebe001461058457806387f350b8146105b45780638e539e8c146105d057806391d148541461060057610227565b8063587cde1e146104ba5780635c19a95c146104ea5780636352211e1461050657806370a082311461053657610227565b80632f2ff15d116101b35780633a46b1a8116101825780633a46b1a8146103f257806342842e0e1461042257806342966c681461043e5780634f6ccce71461045a57806354ba0f271461048a57610227565b80632f2ff15d1461036c5780632f745c59146103885780633644e515146103b857806336568abe146103d657610227565b80630ab5f32a116101fa5780630ab5f32a146102c657806318160ddd146102e457806323b872dd14610302578063248a9ca31461031e578063282c51f31461034e57610227565b806301ffc9a71461022c57806306fdde031461025c578063081812fc1461027a578063095ea7b3146102aa575b600080fd5b6102466004803603810190610241919061465c565b61078a565b6040516102539190614d69565b60405180910390f35b61026461079c565b6040516102719190614e7c565b60405180910390f35b610294600480360381019061028f91906146ff565b61082e565b6040516102a19190614d02565b60405180910390f35b6102c460048036038101906102bf9190614522565b610874565b005b6102ce61098c565b6040516102db9190614d84565b60405180910390f35b6102ec6109b0565b6040516102f9919061523e565b60405180910390f35b61031c6004803603810190610317919061440c565b6109bd565b005b610338600480360381019061033391906145ef565b610a1d565b6040516103459190614d84565b60405180910390f35b610356610a3d565b6040516103639190614d84565b60405180910390f35b6103866004803603810190610381919061461c565b610a61565b005b6103a2600480360381019061039d9190614522565b610a82565b6040516103af919061523e565b60405180910390f35b6103c0610b27565b6040516103cd9190614d84565b60405180910390f35b6103f060048036038101906103eb919061461c565b610b36565b005b61040c60048036038101906104079190614522565b610bb9565b604051610419919061523e565b60405180910390f35b61043c6004803603810190610437919061440c565b610c14565b005b610458600480360381019061045391906146ff565b610c34565b005b610474600480360381019061046f91906146ff565b610cc8565b604051610481919061523e565b60405180910390f35b6104a4600480360381019061049f919061439f565b610d39565b6040516104b1919061523e565b60405180910390f35b6104d460048036038101906104cf919061439f565b610d91565b6040516104e19190614d02565b60405180910390f35b61050460048036038101906104ff919061439f565b610dfa565b005b610520600480360381019061051b91906146ff565b610e14565b60405161052d9190614d02565b60405180910390f35b610550600480360381019061054b919061439f565b610e9b565b60405161055d919061523e565b60405180910390f35b61056e610f53565b60405161057b9190614d84565b60405180910390f35b61059e6004803603810190610599919061439f565b610f77565b6040516105ab919061523e565b60405180910390f35b6105ce60048036038101906105c991906146b6565b610fc7565b005b6105ea60048036038101906105e591906146ff565b61100c565b6040516105f7919061523e565b60405180910390f35b61061a6004803603810190610615919061461c565b61106b565b6040516106279190614d69565b60405180910390f35b6106386110d6565b6040516106459190614e7c565b60405180910390f35b6106686004803603810190610663919061439f565b611168565b604051610675919061523e565b60405180910390f35b6106866111d6565b6040516106939190614d84565b60405180910390f35b6106b660048036038101906106b191906144e2565b6111dd565b005b6106d260048036038101906106cd919061445f565b6111f3565b005b6106ee60048036038101906106e99190614562565b611255565b005b61070a600480360381019061070591906146ff565b611359565b6040516107179190614e7c565b60405180910390f35b6107286113f6565b6040516107359190614d84565b60405180910390f35b6107586004803603810190610753919061461c565b61141a565b005b610774600480360381019061076f91906143cc565b61143b565b6040516107819190614d69565b60405180910390f35b6000610795826114cf565b9050919050565b6060600080546107ab90615558565b80601f01602080910402602001604051908101604052809291908181526020018280546107d790615558565b80156108245780601f106107f957610100808354040283529160200191610824565b820191906000526020600020905b81548152906001019060200180831161080757829003601f168201915b5050505050905090565b600061083982611549565b6004600083815260200190815260200160002060009054906101000a900473ffffffffffffffffffffffffffffffffffffffff169050919050565b600061087f82610e14565b90508073ffffffffffffffffffffffffffffffffffffffff168373ffffffffffffffffffffffffffffffffffffffff1614156108f0576040517f08c379a00000000000000000000000000000000000000000000000000000000081526004016108e79061511e565b60405180910390fd5b8073ffffffffffffffffffffffffffffffffffffffff1661090f611594565b73ffffffffffffffffffffffffffffffffffffffff16148061093e575061093d81610938611594565b61143b565b5b61097d576040517f08c379a00000000000000000000000000000000000000000000000000000000081526004016109749061515e565b60405180910390fd5b610987838361159c565b505050565b7f8e6595ef9afb2a8f70320f393f567bb7a0e6c4ed483caee30f90cc5fcd6659b481565b6000600880549050905090565b6109ce6109c8611594565b82611655565b610a0d576040517f08c379a0000000000000000000000000000000000000000000000000000000008152600401610a0490614ede565b60405180910390fd5b610a188383836116ea565b505050565b6000600a6000838152602001908152602001600020600101549050919050565b7f3c11d16cbaffd01df69ce1c404f6340ee057498f5f00246190ea54220576a84881565b610a6a82610a1d565b610a73816119e4565b610a7d83836119f8565b505050565b6000610a8d83610e9b565b8210610ace576040517f08c379a0000000000000000000000000000000000000000000000000000000008152600401610ac590614f3e565b60405180910390fd5b600660008473ffffffffffffffffffffffffffffffffffffffff1673ffffffffffffffffffffffffffffffffffffffff168152602001908152602001600020600083815260200190815260200160002054905092915050565b6000610b31611ad9565b905090565b610b3e611594565b73ffffffffffffffffffffffffffffffffffffffff168173ffffffffffffffffffffffffffffffffffffffff1614610bab576040517f08c379a0000000000000000000000000000000000000000000000000000000008152600401610ba29061521e565b60405180910390fd5b610bb58282611bf3565b5050565b6000610c0c82600c60008673ffffffffffffffffffffffffffffffffffffffff1673ffffffffffffffffffffffffffffffffffffffff168152602001908152602001600020611cd590919063ffffffff16565b905092915050565b610c2f838383604051806020016040528060008152506111f3565b505050565b610c657f3c11d16cbaffd01df69ce1c404f6340ee057498f5f00246190ea54220576a848610c60611594565b61106b565b80610c7d5750610c7c610c76611594565b82611655565b5b610cbc576040517f08c379a0000000000000000000000000000000000000000000000000000000008152600401610cb390614f7e565b60405180910390fd5b610cc581611e3a565b50565b6000610cd26109b0565b8210610d13576040517f08c379a0000000000000000000000000000000000000000000000000000000008152600401610d0a9061519e565b60405180910390fd5b60088281548110610d2757610d266156b0565b5b90600052602060002001549050919050565b60007f9f2df0fed2c77648de5860a4cc508cd0818c85b8b8a1ab4ceeef8d981c8956a6610d65816119e4565b610d6f600f611f88565b6000610d7b600f611f9e565b9050610d878482611fac565b8092505050919050565b6000600b60008373ffffffffffffffffffffffffffffffffffffffff1673ffffffffffffffffffffffffffffffffffffffff16815260200190815260200160002060009054906101000a900473ffffffffffffffffffffffffffffffffffffffff169050919050565b6000610e04611594565b9050610e108183611fca565b5050565b600080610e20836120de565b9050600073ffffffffffffffffffffffffffffffffffffffff168173ffffffffffffffffffffffffffffffffffffffff161415610e92576040517f08c379a0000000000000000000000000000000000000000000000000000000008152600401610e89906150fe565b60405180910390fd5b80915050919050565b60008073ffffffffffffffffffffffffffffffffffffffff168273ffffffffffffffffffffffffffffffffffffffff161415610f0c576040517f08c379a0000000000000000000000000000000000000000000000000000000008152600401610f039061505e565b60405180910390fd5b600360008373ffffffffffffffffffffffffffffffffffffffff1673ffffffffffffffffffffffffffffffffffffffff168152602001908152602001600020549050919050565b7f1effbbff9c66c5e59634f24fe842750c60d18891155c32dd155fc2d661a4c86d81565b6000610fc0600e60008473ffffffffffffffffffffffffffffffffffffffff1673ffffffffffffffffffffffffffffffffffffffff168152602001908152602001600020611f9e565b9050919050565b7f8e6595ef9afb2a8f70320f393f567bb7a0e6c4ed483caee30f90cc5fcd6659b4610ff1816119e4565b8160109080519060200190611007929190614189565b505050565b6000438210611050576040517f08c379a00000000000000000000000000000000000000000000000000000000081526004016110479061509e565b60405180910390fd5b61106482600d611cd590919063ffffffff16565b9050919050565b6000600a600084815260200190815260200160002060000160008373ffffffffffffffffffffffffffffffffffffffff1673ffffffffffffffffffffffffffffffffffffffff16815260200190815260200160002060009054906101000a900460ff16905092915050565b6060600180546110e590615558565b80601f016020809104026020016040519081016040528092919081815260200182805461111190615558565b801561115e5780601f106111335761010080835404028352916020019161115e565b820191906000526020600020905b81548152906001019060200180831161114157829003601f168201915b5050505050905090565b60006111b1600c60008473ffffffffffffffffffffffffffffffffffffffff1673ffffffffffffffffffffffffffffffffffffffff16815260200190815260200160002061211b565b7bffffffffffffffffffffffffffffffffffffffffffffffffffffffff169050919050565b6000801b81565b6111ef6111e8611594565b8383612185565b5050565b6112046111fe611594565b83611655565b611243576040517f08c379a000000000000000000000000000000000000000000000000000000000815260040161123a90614ede565b60405180910390fd5b61124f848484846122f2565b50505050565b83421115611298576040517f08c379a000000000000000000000000000000000000000000000000000000000815260040161128f9061507e565b60405180910390fd5b60006112fa6112f27fe48329057bfd03d55e49b547132e39cffd9c1820ad7b9d4c5307691425d15adf8989896040516020016112d79493929190614d9f565b6040516020818303038152906040528051906020012061234e565b858585612368565b905061130581612393565b8614611346576040517f08c379a000000000000000000000000000000000000000000000000000000000815260040161133d90614efe565b60405180910390fd5b6113508188611fca565b50505050505050565b606061136482611549565b6010805461137190615558565b80601f016020809104026020016040519081016040528092919081815260200182805461139d90615558565b80156113ea5780601f106113bf576101008083540402835291602001916113ea565b820191906000526020600020905b8154815290600101906020018083116113cd57829003601f168201915b50505050509050919050565b7f9f2df0fed2c77648de5860a4cc508cd0818c85b8b8a1ab4ceeef8d981c8956a681565b61142382610a1d565b61142c816119e4565b6114368383611bf3565b505050565b6000600560008473ffffffffffffffffffffffffffffffffffffffff1673ffffffffffffffffffffffffffffffffffffffff16815260200190815260200160002060008373ffffffffffffffffffffffffffffffffffffffff1673ffffffffffffffffffffffffffffffffffffffff16815260200190815260200160002060009054906101000a900460ff16905092915050565b60007f7965db0b000000000000000000000000000000000000000000000000000000007bffffffffffffffffffffffffffffffffffffffffffffffffffffffff1916827bffffffffffffffffffffffffffffffffffffffffffffffffffffffff191614806115425750611541826123f1565b5b9050919050565b6115528161246b565b611591576040517f08c379a0000000000000000000000000000000000000000000000000000000008152600401611588906150fe565b60405180910390fd5b50565b600033905090565b816004600083815260200190815260200160002060006101000a81548173ffffffffffffffffffffffffffffffffffffffff021916908373ffffffffffffffffffffffffffffffffffffffff160217905550808273ffffffffffffffffffffffffffffffffffffffff1661160f83610e14565b73ffffffffffffffffffffffffffffffffffffffff167f8c5be1e5ebec7d5bd14f71427d1e84f3dd0314c0f7b2291e5b200ac8c7c3b92560405160405180910390a45050565b60008061166183610e14565b90508073ffffffffffffffffffffffffffffffffffffffff168473ffffffffffffffffffffffffffffffffffffffff1614806116a357506116a2818561143b565b5b806116e157508373ffffffffffffffffffffffffffffffffffffffff166116c98461082e565b73ffffffffffffffffffffffffffffffffffffffff16145b91505092915050565b8273ffffffffffffffffffffffffffffffffffffffff1661170a82610e14565b73ffffffffffffffffffffffffffffffffffffffff1614611760576040517f08c379a000000000000000000000000000000000000000000000000000000000815260040161175790614f9e565b60405180910390fd5b600073ffffffffffffffffffffffffffffffffffffffff168273ffffffffffffffffffffffffffffffffffffffff1614156117d0576040517f08c379a00000000000000000000000000000000000000000000000000000000081526004016117c790614fde565b60405180910390fd5b6117dd83838360016124ac565b8273ffffffffffffffffffffffffffffffffffffffff166117fd82610e14565b73ffffffffffffffffffffffffffffffffffffffff1614611853576040517f08c379a000000000000000000000000000000000000000000000000000000000815260040161184a90614f9e565b60405180910390fd5b6004600082815260200190815260200160002060006101000a81549073ffffffffffffffffffffffffffffffffffffffff02191690556001600360008573ffffffffffffffffffffffffffffffffffffffff1673ffffffffffffffffffffffffffffffffffffffff168152602001908152602001600020600082825403925050819055506001600360008473ffffffffffffffffffffffffffffffffffffffff1673ffffffffffffffffffffffffffffffffffffffff16815260200190815260200160002060008282540192505081905550816002600083815260200190815260200160002060006101000a81548173ffffffffffffffffffffffffffffffffffffffff021916908373ffffffffffffffffffffffffffffffffffffffff160217905550808273ffffffffffffffffffffffffffffffffffffffff168473ffffffffffffffffffffffffffffffffffffffff167fddf252ad1be2c89b69c2b068fc378daa952ba7f163c4a11628f55a4df523b3ef60405160405180910390a46119df83838360016125e6565b505050565b6119f5816119f0611594565b612603565b50565b611a02828261106b565b611ad5576001600a600084815260200190815260200160002060000160008373ffffffffffffffffffffffffffffffffffffffff1673ffffffffffffffffffffffffffffffffffffffff16815260200190815260200160002060006101000a81548160ff021916908315150217905550611a7a611594565b73ffffffffffffffffffffffffffffffffffffffff168173ffffffffffffffffffffffffffffffffffffffff16837f2f8788117e7eff1d82e926ec794901d17c78024a50270940304540a733656f0d60405160405180910390a45b5050565b60007f000000000000000000000000000000000000000000000000000000000000000073ffffffffffffffffffffffffffffffffffffffff163073ffffffffffffffffffffffffffffffffffffffff16148015611b5557507f000000000000000000000000000000000000000000000000000000000000000046145b15611b82577f00000000000000000000000000000000000000000000000000000000000000009050611bf0565b611bed7f00000000000000000000000000000000000000000000000000000000000000007f00000000000000000000000000000000000000000000000000000000000000007f0000000000000000000000000000000000000000000000000000000000000000612688565b90505b90565b611bfd828261106b565b15611cd1576000600a600084815260200190815260200160002060000160008373ffffffffffffffffffffffffffffffffffffffff1673ffffffffffffffffffffffffffffffffffffffff16815260200190815260200160002060006101000a81548160ff021916908315150217905550611c76611594565b73ffffffffffffffffffffffffffffffffffffffff168173ffffffffffffffffffffffffffffffffffffffff16837ff6391f5c32d9c69d2a47ea670b442974b53935d1edc7fd64eb21e047a839171b60405160405180910390a45b5050565b6000438210611d19576040517f08c379a0000000000000000000000000000000000000000000000000000000008152600401611d109061503e565b60405180910390fd5b6000611d24836126c2565b90506000846000018054905090506000808290506005831115611da7576000611d4c84612715565b84611d57919061542d565b9050611d66886000018261280f565b60000160009054906101000a900463ffffffff1663ffffffff168563ffffffff161015611d9557809150611da5565b600181611da2919061534c565b92505b505b6000611db888600001868585612824565b905060008114611e0c57611ddb88600001600183611dd6919061542d565b61280f565b60000160049054906101000a90047bffffffffffffffffffffffffffffffffffffffffffffffffffffffff16611e0f565b60005b7bffffffffffffffffffffffffffffffffffffffffffffffffffffffff169550505050505092915050565b6000611e4582610e14565b9050611e558160008460016124ac565b611e5e82610e14565b90506004600083815260200190815260200160002060006101000a81549073ffffffffffffffffffffffffffffffffffffffff02191690556001600360008373ffffffffffffffffffffffffffffffffffffffff1673ffffffffffffffffffffffffffffffffffffffff168152602001908152602001600020600082825403925050819055506002600083815260200190815260200160002060006101000a81549073ffffffffffffffffffffffffffffffffffffffff021916905581600073ffffffffffffffffffffffffffffffffffffffff168273ffffffffffffffffffffffffffffffffffffffff167fddf252ad1be2c89b69c2b068fc378daa952ba7f163c4a11628f55a4df523b3ef60405160405180910390a4611f848160008460016125e6565b5050565b6001816000016000828254019250508190555050565b600081600001549050919050565b611fc6828260405180602001604052806000815250612897565b5050565b6000611fd583610d91565b905081600b60008573ffffffffffffffffffffffffffffffffffffffff1673ffffffffffffffffffffffffffffffffffffffff16815260200190815260200160002060006101000a81548173ffffffffffffffffffffffffffffffffffffffff021916908373ffffffffffffffffffffffffffffffffffffffff1602179055508173ffffffffffffffffffffffffffffffffffffffff168173ffffffffffffffffffffffffffffffffffffffff168473ffffffffffffffffffffffffffffffffffffffff167f3134e8a2e6d97e929a7e54011ea5485d7d196dd5f0ba4d4ef95803e8e3fc257f60405160405180910390a46120d981836120d4866128f2565b612904565b505050565b60006002600083815260200190815260200160002060009054906101000a900473ffffffffffffffffffffffffffffffffffffffff169050919050565b600080826000018054905090506000811461217a5761214983600001600183612144919061542d565b61280f565b60000160049054906101000a90047bffffffffffffffffffffffffffffffffffffffffffffffffffffffff1661217d565b60005b915050919050565b8173ffffffffffffffffffffffffffffffffffffffff168373ffffffffffffffffffffffffffffffffffffffff1614156121f4576040517f08c379a00000000000000000000000000000000000000000000000000000000081526004016121eb90614ffe565b60405180910390fd5b80600560008573ffffffffffffffffffffffffffffffffffffffff1673ffffffffffffffffffffffffffffffffffffffff16815260200190815260200160002060008473ffffffffffffffffffffffffffffffffffffffff1673ffffffffffffffffffffffffffffffffffffffff16815260200190815260200160002060006101000a81548160ff0219169083151502179055508173ffffffffffffffffffffffffffffffffffffffff168373ffffffffffffffffffffffffffffffffffffffff167f17307eab39ab6107e8899845ad3d59bd9653f200f220920489ca2b5937696c31836040516122e59190614d69565b60405180910390a3505050565b6122fd8484846116ea565b61230984848484612b11565b612348576040517f08c379a000000000000000000000000000000000000000000000000000000000815260040161233f90614f5e565b60405180910390fd5b50505050565b600061236161235b611ad9565b83612ca8565b9050919050565b600080600061237987878787612cdb565b9150915061238681612dbe565b8192505050949350505050565b600080600e60008473ffffffffffffffffffffffffffffffffffffffff1673ffffffffffffffffffffffffffffffffffffffff16815260200190815260200160002090506123e081611f9e565b91506123eb81611f88565b50919050565b60007f780e9d63000000000000000000000000000000000000000000000000000000007bffffffffffffffffffffffffffffffffffffffffffffffffffffffff1916827bffffffffffffffffffffffffffffffffffffffffffffffffffffffff19161480612464575061246382612f2c565b5b9050919050565b60008073ffffffffffffffffffffffffffffffffffffffff1661248d836120de565b73ffffffffffffffffffffffffffffffffffffffff1614159050919050565b600073ffffffffffffffffffffffffffffffffffffffff168473ffffffffffffffffffffffffffffffffffffffff1614806125135750600073ffffffffffffffffffffffffffffffffffffffff168373ffffffffffffffffffffffffffffffffffffffff16145b612552576040517f08c379a0000000000000000000000000000000000000000000000000000000008152600401612549906151fe565b60405180910390fd5b600073ffffffffffffffffffffffffffffffffffffffff168373ffffffffffffffffffffffffffffffffffffffff1614806125955750600061259384610e9b565b145b6125d4576040517f08c379a00000000000000000000000000000000000000000000000000000000081526004016125cb906151de565b60405180910390fd5b6125e08484848461300e565b50505050565b6125f184848361316e565b6125fd8484848461322e565b50505050565b61260d828261106b565b6126845761261a8161324b565b6126288360001c6020613278565b604051602001612639929190614cc8565b6040516020818303038152906040526040517f08c379a000000000000000000000000000000000000000000000000000000000815260040161267b9190614e7c565b60405180910390fd5b5050565b600083838346306040516020016126a3959493929190614de4565b6040516020818303038152906040528051906020012090509392505050565b600063ffffffff801682111561270d576040517f08c379a00000000000000000000000000000000000000000000000000000000081526004016127049061517e565b60405180910390fd5b819050919050565b600080821415612728576000905061280a565b60006001612735846134b4565b901c6001901b9050600181848161274f5761274e6155f4565b5b048201901c90506001818481612768576127676155f4565b5b048201901c90506001818481612781576127806155f4565b5b048201901c9050600181848161279a576127996155f4565b5b048201901c905060018184816127b3576127b26155f4565b5b048201901c905060018184816127cc576127cb6155f4565b5b048201901c905060018184816127e5576127e46155f4565b5b048201901c905061280681828581612800576127ff6155f4565b5b04613595565b9150505b919050565b60008260005281602060002001905092915050565b60005b8183101561288c57600061283b84846135ae565b90508463ffffffff1661284e878361280f565b60000160009054906101000a900463ffffffff1663ffffffff16111561287657809250612886565b600181612883919061534c565b93505b50612827565b819050949350505050565b6128a183836135d4565b6128ae6000848484612b11565b6128ed576040517f08c379a00000000000000000000000000000000000000000000000000000000081526004016128e490614f5e565b60405180910390fd5b505050565b60006128fd82610e9b565b9050919050565b8173ffffffffffffffffffffffffffffffffffffffff168373ffffffffffffffffffffffffffffffffffffffff16141580156129405750600081115b15612b0c57600073ffffffffffffffffffffffffffffffffffffffff168373ffffffffffffffffffffffffffffffffffffffff1614612a28576000806129d16137f284600c60008973ffffffffffffffffffffffffffffffffffffffff1673ffffffffffffffffffffffffffffffffffffffff1681526020019081526020016000206138089092919063ffffffff16565b915091508473ffffffffffffffffffffffffffffffffffffffff167fdec2bacdd2f05b59de34da9b523dff8be42e5e38e818c82fdb0bae774387a7248383604051612a1d929190615259565b60405180910390a250505b600073ffffffffffffffffffffffffffffffffffffffff168273ffffffffffffffffffffffffffffffffffffffff1614612b0b57600080612ab461385484600c60008873ffffffffffffffffffffffffffffffffffffffff1673ffffffffffffffffffffffffffffffffffffffff1681526020019081526020016000206138089092919063ffffffff16565b915091508373ffffffffffffffffffffffffffffffffffffffff167fdec2bacdd2f05b59de34da9b523dff8be42e5e38e818c82fdb0bae774387a7248383604051612b00929190615259565b60405180910390a250505b5b505050565b6000612b328473ffffffffffffffffffffffffffffffffffffffff1661386a565b15612c9b578373ffffffffffffffffffffffffffffffffffffffff1663150b7a02612b5b611594565b8786866040518563ffffffff1660e01b8152600401612b7d9493929190614d1d565b602060405180830381600087803b158015612b9757600080fd5b505af1925050508015612bc857506040513d601f19601f82011682018060405250810190612bc59190614689565b60015b612c4b573d8060008114612bf8576040519150601f19603f3d011682016040523d82523d6000602084013e612bfd565b606091505b50600081511415612c43576040517f08c379a0000000000000000000000000000000000000000000000000000000008152600401612c3a90614f5e565b60405180910390fd5b805181602001fd5b63150b7a0260e01b7bffffffffffffffffffffffffffffffffffffffffffffffffffffffff1916817bffffffffffffffffffffffffffffffffffffffffffffffffffffffff191614915050612ca0565b600190505b949350505050565b60008282604051602001612cbd929190614c91565b60405160208183030381529060405280519060200120905092915050565b6000807f7fffffffffffffffffffffffffffffff5d576e7357a4501ddfe92f46681b20a08360001c1115612d16576000600391509150612db5565b600060018787878760405160008152602001604052604051612d3b9493929190614e37565b6020604051602081039080840390855afa158015612d5d573d6000803e3d6000fd5b505050602060405103519050600073ffffffffffffffffffffffffffffffffffffffff168173ffffffffffffffffffffffffffffffffffffffff161415612dac57600060019250925050612db5565b80600092509250505b94509492505050565b60006004811115612dd257612dd1615623565b5b816004811115612de557612de4615623565b5b1415612df057612f29565b60016004811115612e0457612e03615623565b5b816004811115612e1757612e16615623565b5b1415612e58576040517f08c379a0000000000000000000000000000000000000000000000000000000008152600401612e4f90614e9e565b60405180910390fd5b60026004811115612e6c57612e6b615623565b5b816004811115612e7f57612e7e615623565b5b1415612ec0576040517f08c379a0000000000000000000000000000000000000000000000000000000008152600401612eb790614f1e565b60405180910390fd5b60036004811115612ed457612ed3615623565b5b816004811115612ee757612ee6615623565b5b1415612f28576040517f08c379a0000000000000000000000000000000000000000000000000000000008152600401612f1f9061501e565b60405180910390fd5b5b50565b60007f80ac58cd000000000000000000000000000000000000000000000000000000007bffffffffffffffffffffffffffffffffffffffffffffffffffffffff1916827bffffffffffffffffffffffffffffffffffffffffffffffffffffffff19161480612ff757507f5b5e139f000000000000000000000000000000000000000000000000000000007bffffffffffffffffffffffffffffffffffffffffffffffffffffffff1916827bffffffffffffffffffffffffffffffffffffffffffffffffffffffff1916145b8061300757506130068261388d565b5b9050919050565b61301a848484846138f7565b600181111561305e576040517f08c379a0000000000000000000000000000000000000000000000000000000008152600401613055906151be565b60405180910390fd5b6000829050600073ffffffffffffffffffffffffffffffffffffffff168573ffffffffffffffffffffffffffffffffffffffff1614156130a6576130a181613a1d565b6130e5565b8373ffffffffffffffffffffffffffffffffffffffff168573ffffffffffffffffffffffffffffffffffffffff16146130e4576130e38582613a66565b5b5b600073ffffffffffffffffffffffffffffffffffffffff168473ffffffffffffffffffffffffffffffffffffffff1614156131285761312381613bd3565b613167565b8473ffffffffffffffffffffffffffffffffffffffff168473ffffffffffffffffffffffffffffffffffffffff1614613166576131658482613ca4565b5b5b5050505050565b600073ffffffffffffffffffffffffffffffffffffffff168373ffffffffffffffffffffffffffffffffffffffff1614156131be576131bb61385482600d6138089092919063ffffffff16565b50505b600073ffffffffffffffffffffffffffffffffffffffff168273ffffffffffffffffffffffffffffffffffffffff16141561320e5761320b6137f282600d6138089092919063ffffffff16565b50505b61322961321a84610d91565b61322384610d91565b83612904565b505050565b61323984848361316e565b61324584848484613d23565b50505050565b60606132718273ffffffffffffffffffffffffffffffffffffffff16601460ff16613278565b9050919050565b60606000600283600261328b91906153d3565b613295919061534c565b67ffffffffffffffff8111156132ae576132ad6156df565b5b6040519080825280601f01601f1916602001820160405280156132e05781602001600182028036833780820191505090505b5090507f300000000000000000000000000000000000000000000000000000000000000081600081518110613318576133176156b0565b5b60200101907effffffffffffffffffffffffffffffffffffffffffffffffffffffffffffff1916908160001a9053507f78000000000000000000000000000000000000000000000000000000000000008160018151811061337c5761337b6156b0565b5b60200101907effffffffffffffffffffffffffffffffffffffffffffffffffffffffffffff1916908160001a905350600060018460026133bc91906153d3565b6133c6919061534c565b90505b6001811115613466577f3031323334353637383961626364656600000000000000000000000000000000600f861660108110613408576134076156b0565b5b1a60f81b82828151811061341f5761341e6156b0565b5b60200101907effffffffffffffffffffffffffffffffffffffffffffffffffffffffffffff1916908160001a905350600485901c94508061345f9061552e565b90506133c9565b50600084146134aa576040517f08c379a00000000000000000000000000000000000000000000000000000000081526004016134a190614ebe565b60405180910390fd5b8091505092915050565b600080600090506000608084901c11156134d657608083901c92506080810190505b6000604084901c11156134f157604083901c92506040810190505b6000602084901c111561350c57602083901c92506020810190505b6000601084901c111561352757601083901c92506010810190505b6000600884901c111561354257600883901c92506008810190505b6000600484901c111561355d57600483901c92506004810190505b6000600284901c111561357857600283901c92506002810190505b6000600184901c111561358c576001810190505b80915050919050565b60008183106135a457816135a6565b825b905092915050565b600060028284186135bf91906153a2565b8284166135cc919061534c565b905092915050565b600073ffffffffffffffffffffffffffffffffffffffff168273ffffffffffffffffffffffffffffffffffffffff161415613644576040517f08c379a000000000000000000000000000000000000000000000000000000000815260040161363b906150be565b60405180910390fd5b61364d8161246b565b1561368d576040517f08c379a000000000000000000000000000000000000000000000000000000000815260040161368490614fbe565b60405180910390fd5b61369b6000838360016124ac565b6136a48161246b565b156136e4576040517f08c379a00000000000000000000000000000000000000000000000000000000081526004016136db90614fbe565b60405180910390fd5b6001600360008473ffffffffffffffffffffffffffffffffffffffff1673ffffffffffffffffffffffffffffffffffffffff16815260200190815260200160002060008282540192505081905550816002600083815260200190815260200160002060006101000a81548173ffffffffffffffffffffffffffffffffffffffff021916908373ffffffffffffffffffffffffffffffffffffffff160217905550808273ffffffffffffffffffffffffffffffffffffffff16600073ffffffffffffffffffffffffffffffffffffffff167fddf252ad1be2c89b69c2b068fc378daa952ba7f163c4a11628f55a4df523b3ef60405160405180910390a46137ee6000838360016125e6565b5050565b60008183613800919061542d565b905092915050565b6000806138488561384361381b8861211b565b7bffffffffffffffffffffffffffffffffffffffffffffffffffffffff16868863ffffffff16565b613d29565b91509150935093915050565b60008183613862919061534c565b905092915050565b6000808273ffffffffffffffffffffffffffffffffffffffff163b119050919050565b60007f01ffc9a7000000000000000000000000000000000000000000000000000000007bffffffffffffffffffffffffffffffffffffffffffffffffffffffff1916827bffffffffffffffffffffffffffffffffffffffffffffffffffffffff1916149050919050565b6001811115613a1757600073ffffffffffffffffffffffffffffffffffffffff168473ffffffffffffffffffffffffffffffffffffffff161461398b5780600360008673ffffffffffffffffffffffffffffffffffffffff1673ffffffffffffffffffffffffffffffffffffffff1681526020019081526020016000206000828254613983919061542d565b925050819055505b600073ffffffffffffffffffffffffffffffffffffffff168373ffffffffffffffffffffffffffffffffffffffff1614613a165780600360008573ffffffffffffffffffffffffffffffffffffffff1673ffffffffffffffffffffffffffffffffffffffff1681526020019081526020016000206000828254613a0e919061534c565b925050819055505b5b50505050565b6008805490506009600083815260200190815260200160002081905550600881908060018154018082558091505060019003906000526020600020016000909190919091505550565b60006001613a7384610e9b565b613a7d919061542d565b9050600060076000848152602001908152602001600020549050818114613b62576000600660008673ffffffffffffffffffffffffffffffffffffffff1673ffffffffffffffffffffffffffffffffffffffff168152602001908152602001600020600084815260200190815260200160002054905080600660008773ffffffffffffffffffffffffffffffffffffffff1673ffffffffffffffffffffffffffffffffffffffff168152602001908152602001600020600084815260200190815260200160002081905550816007600083815260200190815260200160002081905550505b6007600084815260200190815260200160002060009055600660008573ffffffffffffffffffffffffffffffffffffffff1673ffffffffffffffffffffffffffffffffffffffff16815260200190815260200160002060008381526020019081526020016000206000905550505050565b60006001600880549050613be7919061542d565b9050600060096000848152602001908152602001600020549050600060088381548110613c1757613c166156b0565b5b906000526020600020015490508060088381548110613c3957613c386156b0565b5b906000526020600020018190555081600960008381526020019081526020016000208190555060096000858152602001908152602001600020600090556008805480613c8857613c87615681565b5b6001900381819060005260206000200160009055905550505050565b6000613caf83610e9b565b905081600660008573ffffffffffffffffffffffffffffffffffffffff1673ffffffffffffffffffffffffffffffffffffffff168152602001908152602001600020600083815260200190815260200160002081905550806007600084815260200190815260200160002081905550505050565b50505050565b600080613d4a84600001613d3c436126c2565b613d4586613d97565b613e02565b817bffffffffffffffffffffffffffffffffffffffffffffffffffffffff169150807bffffffffffffffffffffffffffffffffffffffffffffffffffffffff169050915091509250929050565b60007bffffffffffffffffffffffffffffffffffffffffffffffffffffffff8016821115613dfa576040517f08c379a0000000000000000000000000000000000000000000000000000000008152600401613df1906150de565b60405180910390fd5b819050919050565b6000806000858054905090506000811115614099576000613e2f87600184613e2a919061542d565b61280f565b6040518060400160405290816000820160009054906101000a900463ffffffff1663ffffffff1663ffffffff1681526020016000820160049054906101000a90047bffffffffffffffffffffffffffffffffffffffffffffffffffffffff167bffffffffffffffffffffffffffffffffffffffffffffffffffffffff167bffffffffffffffffffffffffffffffffffffffffffffffffffffffff168152505090508563ffffffff16816000015163ffffffff161115613f23576040517f08c379a0000000000000000000000000000000000000000000000000000000008152600401613f1a9061513e565b60405180910390fd5b8563ffffffff16816000015163ffffffff161415613fa85784613f5288600185613f4d919061542d565b61280f565b60000160046101000a8154817bffffffffffffffffffffffffffffffffffffffffffffffffffffffff02191690837bffffffffffffffffffffffffffffffffffffffffffffffffffffffff160217905550614088565b8660405180604001604052808863ffffffff168152602001877bffffffffffffffffffffffffffffffffffffffffffffffffffffffff168152509080600181540180825580915050600190039060005260206000200160009091909190915060008201518160000160006101000a81548163ffffffff021916908363ffffffff16021790555060208201518160000160046101000a8154817bffffffffffffffffffffffffffffffffffffffffffffffffffffffff02191690837bffffffffffffffffffffffffffffffffffffffffffffffffffffffff16021790555050505b806020015185935093505050614181565b8560405180604001604052808763ffffffff168152602001867bffffffffffffffffffffffffffffffffffffffffffffffffffffffff168152509080600181540180825580915050600190039060005260206000200160009091909190915060008201518160000160006101000a81548163ffffffff021916908363ffffffff16021790555060208201518160000160046101000a8154817bffffffffffffffffffffffffffffffffffffffffffffffffffffffff02191690837bffffffffffffffffffffffffffffffffffffffffffffffffffffffff160217905550505060008492509250505b935093915050565b82805461419590615558565b90600052602060002090601f0160209004810192826141b757600085556141fe565b82601f106141d057805160ff19168380011785556141fe565b828001600101855582156141fe579182015b828111156141fd5782518255916020019190600101906141e2565b5b50905061420b919061420f565b5090565b5b80821115614228576000816000905550600101614210565b5090565b600061423f61423a846152a7565b615282565b90508281526020810184848401111561425b5761425a615713565b5b6142668482856154ec565b509392505050565b600061428161427c846152d8565b615282565b90508281526020810184848401111561429d5761429c615713565b5b6142a88482856154ec565b509392505050565b6000813590506142bf81615e67565b92915050565b6000813590506142d481615e7e565b92915050565b6000813590506142e981615e95565b92915050565b6000813590506142fe81615eac565b92915050565b60008151905061431381615eac565b92915050565b600082601f83011261432e5761432d61570e565b5b813561433e84826020860161422c565b91505092915050565b600082601f83011261435c5761435b61570e565b5b813561436c84826020860161426e565b91505092915050565b60008135905061438481615ec3565b92915050565b60008135905061439981615eda565b92915050565b6000602082840312156143b5576143b461571d565b5b60006143c3848285016142b0565b91505092915050565b600080604083850312156143e3576143e261571d565b5b60006143f1858286016142b0565b9250506020614402858286016142b0565b9150509250929050565b6000806000606084860312156144255761442461571d565b5b6000614433868287016142b0565b9350506020614444868287016142b0565b925050604061445586828701614375565b9150509250925092565b600080600080608085870312156144795761447861571d565b5b6000614487878288016142b0565b9450506020614498878288016142b0565b93505060406144a987828801614375565b925050606085013567ffffffffffffffff8111156144ca576144c9615718565b5b6144d687828801614319565b91505092959194509250565b600080604083850312156144f9576144f861571d565b5b6000614507858286016142b0565b9250506020614518858286016142c5565b9150509250929050565b600080604083850312156145395761453861571d565b5b6000614547858286016142b0565b925050602061455885828601614375565b9150509250929050565b60008060008060008060c0878903121561457f5761457e61571d565b5b600061458d89828a016142b0565b965050602061459e89828a01614375565b95505060406145af89828a01614375565b94505060606145c089828a0161438a565b93505060806145d189828a016142da565b92505060a06145e289828a016142da565b9150509295509295509295565b6000602082840312156146055761460461571d565b5b6000614613848285016142da565b91505092915050565b600080604083850312156146335761463261571d565b5b6000614641858286016142da565b9250506020614652858286016142b0565b9150509250929050565b6000602082840312156146725761467161571d565b5b6000614680848285016142ef565b91505092915050565b60006020828403121561469f5761469e61571d565b5b60006146ad84828501614304565b91505092915050565b6000602082840312156146cc576146cb61571d565b5b600082013567ffffffffffffffff8111156146ea576146e9615718565b5b6146f684828501614347565b91505092915050565b6000602082840312156147155761471461571d565b5b600061472384828501614375565b91505092915050565b61473581615461565b82525050565b61474481615473565b82525050565b6147538161547f565b82525050565b61476a6147658261547f565b6155bb565b82525050565b600061477b82615309565b614785818561531f565b93506147958185602086016154fb565b61479e81615722565b840191505092915050565b60006147b482615314565b6147be8185615330565b93506147ce8185602086016154fb565b6147d781615722565b840191505092915050565b60006147ed82615314565b6147f78185615341565b93506148078185602086016154fb565b80840191505092915050565b6000614820601883615330565b915061482b82615733565b602082019050919050565b6000614843602083615330565b915061484e8261575c565b602082019050919050565b6000614866602d83615330565b915061487182615785565b604082019050919050565b6000614889601483615330565b9150614894826157d4565b602082019050919050565b60006148ac601f83615330565b91506148b7826157fd565b602082019050919050565b60006148cf602b83615330565b91506148da82615826565b604082019050919050565b60006148f2603283615330565b91506148fd82615875565b604082019050919050565b6000614915601283615330565b9150614920826158c4565b602082019050919050565b6000614938602583615330565b9150614943826158ed565b604082019050919050565b600061495b601c83615330565b91506149668261593c565b602082019050919050565b600061497e600283615341565b915061498982615965565b600282019050919050565b60006149a1602483615330565b91506149ac8261598e565b604082019050919050565b60006149c4601983615330565b91506149cf826159dd565b602082019050919050565b60006149e7602283615330565b91506149f282615a06565b604082019050919050565b6000614a0a602083615330565b9150614a1582615a55565b602082019050919050565b6000614a2d602983615330565b9150614a3882615a7e565b604082019050919050565b6000614a50601883615330565b9150614a5b82615acd565b602082019050919050565b6000614a73601a83615330565b9150614a7e82615af6565b602082019050919050565b6000614a96602083615330565b9150614aa182615b1f565b602082019050919050565b6000614ab9602783615330565b9150614ac482615b48565b604082019050919050565b6000614adc601883615330565b9150614ae782615b97565b602082019050919050565b6000614aff602183615330565b9150614b0a82615bc0565b604082019050919050565b6000614b22601783615330565b9150614b2d82615c0f565b602082019050919050565b6000614b45603d83615330565b9150614b5082615c38565b604082019050919050565b6000614b68602683615330565b9150614b7382615c87565b604082019050919050565b6000614b8b602c83615330565b9150614b9682615cd6565b604082019050919050565b6000614bae601783615341565b9150614bb982615d25565b601782019050919050565b6000614bd1603583615330565b9150614bdc82615d4e565b604082019050919050565b6000614bf4601c83615330565b9150614bff82615d9d565b602082019050919050565b6000614c17601e83615330565b9150614c2282615dc6565b602082019050919050565b6000614c3a601183615341565b9150614c4582615def565b601182019050919050565b6000614c5d602f83615330565b9150614c6882615e18565b604082019050919050565b614c7c816154d5565b82525050565b614c8b816154df565b82525050565b6000614c9c82614971565b9150614ca88285614759565b602082019150614cb88284614759565b6020820191508190509392505050565b6000614cd382614ba1565b9150614cdf82856147e2565b9150614cea82614c2d565b9150614cf682846147e2565b91508190509392505050565b6000602082019050614d17600083018461472c565b92915050565b6000608082019050614d32600083018761472c565b614d3f602083018661472c565b614d4c6040830185614c73565b8181036060830152614d5e8184614770565b905095945050505050565b6000602082019050614d7e600083018461473b565b92915050565b6000602082019050614d99600083018461474a565b92915050565b6000608082019050614db4600083018761474a565b614dc1602083018661472c565b614dce6040830185614c73565b614ddb6060830184614c73565b95945050505050565b600060a082019050614df9600083018861474a565b614e06602083018761474a565b614e13604083018661474a565b614e206060830185614c73565b614e2d608083018461472c565b9695505050505050565b6000608082019050614e4c600083018761474a565b614e596020830186614c82565b614e66604083018561474a565b614e73606083018461474a565b95945050505050565b60006020820190508181036000830152614e9681846147a9565b905092915050565b60006020820190508181036000830152614eb781614813565b9050919050565b60006020820190508181036000830152614ed781614836565b9050919050565b60006020820190508181036000830152614ef781614859565b9050919050565b60006020820190508181036000830152614f178161487c565b9050919050565b60006020820190508181036000830152614f378161489f565b9050919050565b60006020820190508181036000830152614f57816148c2565b9050919050565b60006020820190508181036000830152614f77816148e5565b9050919050565b60006020820190508181036000830152614f9781614908565b9050919050565b60006020820190508181036000830152614fb78161492b565b9050919050565b60006020820190508181036000830152614fd78161494e565b9050919050565b60006020820190508181036000830152614ff781614994565b9050919050565b60006020820190508181036000830152615017816149b7565b9050919050565b60006020820190508181036000830152615037816149da565b9050919050565b60006020820190508181036000830152615057816149fd565b9050919050565b6000602082019050818103600083015261507781614a20565b9050919050565b6000602082019050818103600083015261509781614a43565b9050919050565b600060208201905081810360008301526150b781614a66565b9050919050565b600060208201905081810360008301526150d781614a89565b9050919050565b600060208201905081810360008301526150f781614aac565b9050919050565b6000602082019050818103600083015261511781614acf565b9050919050565b6000602082019050818103600083015261513781614af2565b9050919050565b6000602082019050818103600083015261515781614b15565b9050919050565b6000602082019050818103600083015261517781614b38565b9050919050565b6000602082019050818103600083015261519781614b5b565b9050919050565b600060208201905081810360008301526151b781614b7e565b9050919050565b600060208201905081810360008301526151d781614bc4565b9050919050565b600060208201905081810360008301526151f781614be7565b9050919050565b6000602082019050818103600083015261521781614c0a565b9050919050565b6000602082019050818103600083015261523781614c50565b9050919050565b60006020820190506152536000830184614c73565b92915050565b600060408201905061526e6000830185614c73565b61527b6020830184614c73565b9392505050565b600061528c61529d565b9050615298828261558a565b919050565b6000604051905090565b600067ffffffffffffffff8211156152c2576152c16156df565b5b6152cb82615722565b9050602081019050919050565b600067ffffffffffffffff8211156152f3576152f26156df565b5b6152fc82615722565b9050602081019050919050565b600081519050919050565b600081519050919050565b600082825260208201905092915050565b600082825260208201905092915050565b600081905092915050565b6000615357826154d5565b9150615362836154d5565b9250827fffffffffffffffffffffffffffffffffffffffffffffffffffffffffffffffff03821115615397576153966155c5565b5b828201905092915050565b60006153ad826154d5565b91506153b8836154d5565b9250826153c8576153c76155f4565b5b828204905092915050565b60006153de826154d5565b91506153e9836154d5565b9250817fffffffffffffffffffffffffffffffffffffffffffffffffffffffffffffffff0483118215151615615422576154216155c5565b5b828202905092915050565b6000615438826154d5565b9150615443836154d5565b925082821015615456576154556155c5565b5b828203905092915050565b600061546c826154b5565b9050919050565b60008115159050919050565b6000819050919050565b60007fffffffff0000000000000000000000000000000000000000000000000000000082169050919050565b600073ffffffffffffffffffffffffffffffffffffffff82169050919050565b6000819050919050565b600060ff82169050919050565b82818337600083830152505050565b60005b838110156155195780820151818401526020810190506154fe565b83811115615528576000848401525b50505050565b6000615539826154d5565b9150600082141561554d5761554c6155c5565b5b600182039050919050565b6000600282049050600182168061557057607f821691505b6020821081141561558457615583615652565b5b50919050565b61559382615722565b810181811067ffffffffffffffff821117156155b2576155b16156df565b5b80604052505050565b6000819050919050565b7f4e487b7100000000000000000000000000000000000000000000000000000000600052601160045260246000fd5b7f4e487b7100000000000000000000000000000000000000000000000000000000600052601260045260246000fd5b7f4e487b7100000000000000000000000000000000000000000000000000000000600052602160045260246000fd5b7f4e487b7100000000000000000000000000000000000000000000000000000000600052602260045260246000fd5b7f4e487b7100000000000000000000000000000000000000000000000000000000600052603160045260246000fd5b7f4e487b7100000000000000000000000000000000000000000000000000000000600052603260045260246000fd5b7f4e487b7100000000000000000000000000000000000000000000000000000000600052604160045260246000fd5b600080fd5b600080fd5b600080fd5b600080fd5b6000601f19601f8301169050919050565b7f45434453413a20696e76616c6964207369676e61747572650000000000000000600082015250565b7f537472696e67733a20686578206c656e67746820696e73756666696369656e74600082015250565b7f4552433732313a2063616c6c6572206973206e6f7420746f6b656e206f776e6560008201527f72206f7220617070726f76656400000000000000000000000000000000000000602082015250565b7f566f7465733a20696e76616c6964206e6f6e6365000000000000000000000000600082015250565b7f45434453413a20696e76616c6964207369676e6174757265206c656e67746800600082015250565b7f455243373231456e756d657261626c653a206f776e657220696e646578206f7560008201527f74206f6620626f756e6473000000000000000000000000000000000000000000602082015250565b7f4552433732313a207472616e7366657220746f206e6f6e20455243373231526560008201527f63656976657220696d706c656d656e7465720000000000000000000000000000602082015250565b7f43616c6c65722063616e6e6f74206275726e0000000000000000000000000000600082015250565b7f4552433732313a207472616e736665722066726f6d20696e636f72726563742060008201527f6f776e6572000000000000000000000000000000000000000000000000000000602082015250565b7f4552433732313a20746f6b656e20616c7265616479206d696e74656400000000600082015250565b7f1901000000000000000000000000000000000000000000000000000000000000600082015250565b7f4552433732313a207472616e7366657220746f20746865207a65726f2061646460008201527f7265737300000000000000000000000000000000000000000000000000000000602082015250565b7f4552433732313a20617070726f766520746f2063616c6c657200000000000000600082015250565b7f45434453413a20696e76616c6964207369676e6174757265202773272076616c60008201527f7565000000000000000000000000000000000000000000000000000000000000602082015250565b7f436865636b706f696e74733a20626c6f636b206e6f7420796574206d696e6564600082015250565b7f4552433732313a2061646472657373207a65726f206973206e6f74206120766160008201527f6c6964206f776e65720000000000000000000000000000000000000000000000602082015250565b7f566f7465733a207369676e617475726520657870697265640000000000000000600082015250565b7f566f7465733a20626c6f636b206e6f7420796574206d696e6564000000000000600082015250565b7f4552433732313a206d696e7420746f20746865207a65726f2061646472657373600082015250565b7f53616665436173743a2076616c756520646f65736e27742066697420696e203260008201527f3234206269747300000000000000000000000000000000000000000000000000602082015250565b7f4552433732313a20696e76616c696420746f6b656e2049440000000000000000600082015250565b7f4552433732313a20617070726f76616c20746f2063757272656e74206f776e6560008201527f7200000000000000000000000000000000000000000000000000000000000000602082015250565b7f436865636b706f696e743a20696e76616c6964206b6579000000000000000000600082015250565b7f4552433732313a20617070726f76652063616c6c6572206973206e6f7420746f60008201527f6b656e206f776e6572206f7220617070726f76656420666f7220616c6c000000602082015250565b7f53616665436173743a2076616c756520646f65736e27742066697420696e203360008201527f3220626974730000000000000000000000000000000000000000000000000000602082015250565b7f455243373231456e756d657261626c653a20676c6f62616c20696e646578206f60008201527f7574206f6620626f756e64730000000000000000000000000000000000000000602082015250565b7f416363657373436f6e74726f6c3a206163636f756e7420000000000000000000600082015250565b7f455243373231456e756d657261626c653a20636f6e736563757469766520747260008201527f616e7366657273206e6f7420737570706f727465640000000000000000000000602082015250565b7f4572723a20796f7520616c7265616479206f776e206120746f6b656e00000000600082015250565b7f4572723a20746f6b656e207472616e7366657220697320424c4f434b45440000600082015250565b7f206973206d697373696e6720726f6c6520000000000000000000000000000000600082015250565b7f416363657373436f6e74726f6c3a2063616e206f6e6c792072656e6f756e636560008201527f20726f6c657320666f722073656c660000000000000000000000000000000000602082015250565b615e7081615461565b8114615e7b57600080fd5b50565b615e8781615473565b8114615e9257600080fd5b50565b615e9e8161547f565b8114615ea957600080fd5b50565b615eb581615489565b8114615ec057600080fd5b50565b615ecc816154d5565b8114615ed757600080fd5b50565b615ee3816154df565b8114615eee57600080fd5b5056fea26469706673582212209ebd887a18bde0cb803f398216facfaf83e8701342fa08d1ecee0927c19db13264736f6c63430008060033",
  "linkReferences": {},
  "deployedLinkReferences": {}
}