{
  "_format": "hh-sol-artifact-1",
  "contractName": "NFT",
  "sourceName": "contracts/NFT.sol",
  "abi": [
    {
      "inputs": [
        {
          "internalType": "address",
          "name": "minter",
          "type": "address"
        },
        {
          "internalType": "address",
          "name": "burner",
          "type": "address"
        },
        {
          "internalType": "address",
          "name": "uri",
          "type": "address"
        },
        {
          "internalType": "address",
          "name": "admin",
          "type": "address"
        },
        {
          "internalType": "string",
          "name": "_baseTokenURI",
          "type": "string"
        }
      ],
      "stateMutability": "nonpayable",
      "type": "constructor"
    },
    {
      "anonymous": false,
      "inputs": [
        {
          "indexed": true,
          "internalType": "address",
          "name": "owner",
          "type": "address"
        },
        {
          "indexed": true,
          "internalType": "address",
          "name": "approved",
          "type": "address"
        },
        {
          "indexed": true,
          "internalType": "uint256",
          "name": "tokenId",
          "type": "uint256"
        }
      ],
      "name": "Approval",
      "type": "event"
    },
    {
      "anonymous": false,
      "inputs": [
        {
          "indexed": true,
          "internalType": "address",
          "name": "owner",
          "type": "address"
        },
        {
          "indexed": true,
          "internalType": "address",
          "name": "operator",
          "type": "address"
        },
        {
          "indexed": false,
          "internalType": "bool",
          "name": "approved",
          "type": "bool"
        }
      ],
      "name": "ApprovalForAll",
      "type": "event"
    },
    {
      "anonymous": false,
      "inputs": [
        {
          "indexed": true,
          "internalType": "bytes32",
          "name": "role",
          "type": "bytes32"
        },
        {
          "indexed": true,
          "internalType": "bytes32",
          "name": "previousAdminRole",
          "type": "bytes32"
        },
        {
          "indexed": true,
          "internalType": "bytes32",
          "name": "newAdminRole",
          "type": "bytes32"
        }
      ],
      "name": "RoleAdminChanged",
      "type": "event"
    },
    {
      "anonymous": false,
      "inputs": [
        {
          "indexed": true,
          "internalType": "bytes32",
          "name": "role",
          "type": "bytes32"
        },
        {
          "indexed": true,
          "internalType": "address",
          "name": "account",
          "type": "address"
        },
        {
          "indexed": true,
          "internalType": "address",
          "name": "sender",
          "type": "address"
        }
      ],
      "name": "RoleGranted",
      "type": "event"
    },
    {
      "anonymous": false,
      "inputs": [
        {
          "indexed": true,
          "internalType": "bytes32",
          "name": "role",
          "type": "bytes32"
        },
        {
          "indexed": true,
          "internalType": "address",
          "name": "account",
          "type": "address"
        },
        {
          "indexed": true,
          "internalType": "address",
          "name": "sender",
          "type": "address"
        }
      ],
      "name": "RoleRevoked",
      "type": "event"
    },
    {
      "anonymous": false,
      "inputs": [
        {
          "indexed": true,
          "internalType": "address",
          "name": "from",
          "type": "address"
        },
        {
          "indexed": true,
          "internalType": "address",
          "name": "to",
          "type": "address"
        },
        {
          "indexed": true,
          "internalType": "uint256",
          "name": "tokenId",
          "type": "uint256"
        }
      ],
      "name": "Transfer",
      "type": "event"
    },
    {
      "inputs": [],
      "name": "ADMIN_ROLE",
      "outputs": [
        {
          "internalType": "bytes32",
          "name": "",
          "type": "bytes32"
        }
      ],
      "stateMutability": "view",
      "type": "function"
    },
    {
      "inputs": [],
      "name": "BURNER_ROLE",
      "outputs": [
        {
          "internalType": "bytes32",
          "name": "",
          "type": "bytes32"
        }
      ],
      "stateMutability": "view",
      "type": "function"
    },
    {
      "inputs": [],
      "name": "DEFAULT_ADMIN_ROLE",
      "outputs": [
        {
          "internalType": "bytes32",
          "name": "",
          "type": "bytes32"
        }
      ],
      "stateMutability": "view",
      "type": "function"
    },
    {
      "inputs": [],
      "name": "MINTER_ROLE",
      "outputs": [
        {
          "internalType": "bytes32",
          "name": "",
          "type": "bytes32"
        }
      ],
      "stateMutability": "view",
      "type": "function"
    },
    {
      "inputs": [],
      "name": "URI_ROLE",
      "outputs": [
        {
          "internalType": "bytes32",
          "name": "",
          "type": "bytes32"
        }
      ],
      "stateMutability": "view",
      "type": "function"
    },
    {
      "inputs": [
        {
          "internalType": "string",
          "name": "_baseTokenUri",
          "type": "string"
        }
      ],
      "name": "_setTokenURI",
      "outputs": [],
      "stateMutability": "nonpayable",
      "type": "function"
    },
    {
      "inputs": [
        {
          "internalType": "address",
          "name": "to",
          "type": "address"
        },
        {
          "internalType": "uint256",
          "name": "tokenId",
          "type": "uint256"
        }
      ],
      "name": "approve",
      "outputs": [],
      "stateMutability": "nonpayable",
      "type": "function"
    },
    {
      "inputs": [
        {
          "internalType": "address",
          "name": "owner",
          "type": "address"
        }
      ],
      "name": "balanceOf",
      "outputs": [
        {
          "internalType": "uint256",
          "name": "",
          "type": "uint256"
        }
      ],
      "stateMutability": "view",
      "type": "function"
    },
    {
      "inputs": [
        {
          "internalType": "uint256",
          "name": "tokenId",
          "type": "uint256"
        }
      ],
      "name": "burn",
      "outputs": [],
      "stateMutability": "nonpayable",
      "type": "function"
    },
    {
      "inputs": [
        {
          "internalType": "uint256",
          "name": "tokenId",
          "type": "uint256"
        }
      ],
      "name": "getApproved",
      "outputs": [
        {
          "internalType": "address",
          "name": "",
          "type": "address"
        }
      ],
      "stateMutability": "view",
      "type": "function"
    },
    {
      "inputs": [
        {
          "internalType": "bytes32",
          "name": "role",
          "type": "bytes32"
        }
      ],
      "name": "getRoleAdmin",
      "outputs": [
        {
          "internalType": "bytes32",
          "name": "",
          "type": "bytes32"
        }
      ],
      "stateMutability": "view",
      "type": "function"
    },
    {
      "inputs": [
        {
          "internalType": "bytes32",
          "name": "role",
          "type": "bytes32"
        },
        {
          "internalType": "uint256",
          "name": "index",
          "type": "uint256"
        }
      ],
      "name": "getRoleMember",
      "outputs": [
        {
          "internalType": "address",
          "name": "",
          "type": "address"
        }
      ],
      "stateMutability": "view",
      "type": "function"
    },
    {
      "inputs": [
        {
          "internalType": "bytes32",
          "name": "role",
          "type": "bytes32"
        }
      ],
      "name": "getRoleMemberCount",
      "outputs": [
        {
          "internalType": "uint256",
          "name": "",
          "type": "uint256"
        }
      ],
      "stateMutability": "view",
      "type": "function"
    },
    {
      "inputs": [
        {
          "internalType": "bytes32",
          "name": "role",
          "type": "bytes32"
        },
        {
          "internalType": "address",
          "name": "account",
          "type": "address"
        }
      ],
      "name": "grantRole",
      "outputs": [],
      "stateMutability": "nonpayable",
      "type": "function"
    },
    {
      "inputs": [
        {
          "internalType": "bytes32",
          "name": "role",
          "type": "bytes32"
        },
        {
          "internalType": "address",
          "name": "account",
          "type": "address"
        }
      ],
      "name": "hasRole",
      "outputs": [
        {
          "internalType": "bool",
          "name": "",
          "type": "bool"
        }
      ],
      "stateMutability": "view",
      "type": "function"
    },
    {
      "inputs": [
        {
          "internalType": "address",
          "name": "owner",
          "type": "address"
        },
        {
          "internalType": "address",
          "name": "operator",
          "type": "address"
        }
      ],
      "name": "isApprovedForAll",
      "outputs": [
        {
          "internalType": "bool",
          "name": "",
          "type": "bool"
        }
      ],
      "stateMutability": "view",
      "type": "function"
    },
    {
      "inputs": [
        {
          "internalType": "address",
          "name": "recipient",
          "type": "address"
        }
      ],
      "name": "mintNFT",
      "outputs": [
        {
          "internalType": "uint256",
          "name": "",
          "type": "uint256"
        }
      ],
      "stateMutability": "nonpayable",
      "type": "function"
    },
    {
      "inputs": [],
      "name": "name",
      "outputs": [
        {
          "internalType": "string",
          "name": "",
          "type": "string"
        }
      ],
      "stateMutability": "view",
      "type": "function"
    },
    {
      "inputs": [
        {
          "internalType": "uint256",
          "name": "tokenId",
          "type": "uint256"
        }
      ],
      "name": "ownerOf",
      "outputs": [
        {
          "internalType": "address",
          "name": "",
          "type": "address"
        }
      ],
      "stateMutability": "view",
      "type": "function"
    },
    {
      "inputs": [
        {
          "internalType": "bytes32",
          "name": "role",
          "type": "bytes32"
        },
        {
          "internalType": "address",
          "name": "account",
          "type": "address"
        }
      ],
      "name": "renounceRole",
      "outputs": [],
      "stateMutability": "nonpayable",
      "type": "function"
    },
    {
      "inputs": [
        {
          "internalType": "bytes32",
          "name": "role",
          "type": "bytes32"
        },
        {
          "internalType": "address",
          "name": "account",
          "type": "address"
        }
      ],
      "name": "revokeRole",
      "outputs": [],
      "stateMutability": "nonpayable",
      "type": "function"
    },
    {
      "inputs": [
        {
          "internalType": "address",
          "name": "from",
          "type": "address"
        },
        {
          "internalType": "address",
          "name": "to",
          "type": "address"
        },
        {
          "internalType": "uint256",
          "name": "tokenId",
          "type": "uint256"
        }
      ],
      "name": "safeTransferFrom",
      "outputs": [],
      "stateMutability": "nonpayable",
      "type": "function"
    },
    {
      "inputs": [
        {
          "internalType": "address",
          "name": "from",
          "type": "address"
        },
        {
          "internalType": "address",
          "name": "to",
          "type": "address"
        },
        {
          "internalType": "uint256",
          "name": "tokenId",
          "type": "uint256"
        },
        {
          "internalType": "bytes",
          "name": "data",
          "type": "bytes"
        }
      ],
      "name": "safeTransferFrom",
      "outputs": [],
      "stateMutability": "nonpayable",
      "type": "function"
    },
    {
      "inputs": [
        {
          "internalType": "address",
          "name": "operator",
          "type": "address"
        },
        {
          "internalType": "bool",
          "name": "approved",
          "type": "bool"
        }
      ],
      "name": "setApprovalForAll",
      "outputs": [],
      "stateMutability": "nonpayable",
      "type": "function"
    },
    {
      "inputs": [
        {
          "internalType": "bytes4",
          "name": "interfaceId",
          "type": "bytes4"
        }
      ],
      "name": "supportsInterface",
      "outputs": [
        {
          "internalType": "bool",
          "name": "",
          "type": "bool"
        }
      ],
      "stateMutability": "view",
      "type": "function"
    },
    {
      "inputs": [],
      "name": "symbol",
      "outputs": [
        {
          "internalType": "string",
          "name": "",
          "type": "string"
        }
      ],
      "stateMutability": "view",
      "type": "function"
    },
    {
      "inputs": [
        {
          "internalType": "uint256",
          "name": "index",
          "type": "uint256"
        }
      ],
      "name": "tokenByIndex",
      "outputs": [
        {
          "internalType": "uint256",
          "name": "",
          "type": "uint256"
        }
      ],
      "stateMutability": "view",
      "type": "function"
    },
    {
      "inputs": [
        {
          "internalType": "address",
          "name": "owner",
          "type": "address"
        },
        {
          "internalType": "uint256",
          "name": "index",
          "type": "uint256"
        }
      ],
      "name": "tokenOfOwnerByIndex",
      "outputs": [
        {
          "internalType": "uint256",
          "name": "",
          "type": "uint256"
        }
      ],
      "stateMutability": "view",
      "type": "function"
    },
    {
      "inputs": [
        {
          "internalType": "uint256",
          "name": "tokenId",
          "type": "uint256"
        }
      ],
      "name": "tokenURI",
      "outputs": [
        {
          "internalType": "string",
          "name": "",
          "type": "string"
        }
      ],
      "stateMutability": "view",
      "type": "function"
    },
    {
      "inputs": [],
      "name": "totalSupply",
      "outputs": [
        {
          "internalType": "uint256",
          "name": "",
          "type": "uint256"
        }
      ],
      "stateMutability": "view",
      "type": "function"
    },
    {
      "inputs": [
        {
          "internalType": "address",
          "name": "from",
          "type": "address"
        },
        {
          "internalType": "address",
          "name": "to",
          "type": "address"
        },
        {
          "internalType": "uint256",
          "name": "tokenId",
          "type": "uint256"
        }
      ],
      "name": "transferFrom",
      "outputs": [],
      "stateMutability": "nonpayable",
      "type": "function"
    }
  ],
  "bytecode": "0x60806040523480156200001157600080fd5b5060405162004ce838038062004ce8833981810160405281019062000037919062000583565b6040518060400160405280601781526020017f54455354315043432044414f204d656d626572736869700000000000000000008152506040518060400160405280600581526020017f54315043430000000000000000000000000000000000000000000000000000008152508160009080519060200190620000bb9291906200043e565b508060019080519060200190620000d49291906200043e565b505050620001097f9f2df0fed2c77648de5860a4cc508cd0818c85b8b8a1ab4ceeef8d981c8956a686620001a660201b60201c565b6200013b7f3c11d16cbaffd01df69ce1c404f6340ee057498f5f00246190ea54220576a84885620001a660201b60201c565b6200016d7f8e6595ef9afb2a8f70320f393f567bb7a0e6c4ed483caee30f90cc5fcd6659b484620001a660201b60201c565b620001826000801b83620001a660201b60201c565b80600d90805190602001906200019a9291906200043e565b505050505050620007fc565b620001b88282620001bc60201b60201c565b5050565b620001d382826200020460201b620010ec1760201c565b620001ff81600b6000858152602001908152602001600020620002f660201b620011cd1790919060201c565b505050565b6200021682826200032e60201b60201c565b620002f2576001600a600084815260200190815260200160002060000160008373ffffffffffffffffffffffffffffffffffffffff1673ffffffffffffffffffffffffffffffffffffffff16815260200190815260200160002060006101000a81548160ff021916908315150217905550620002976200039960201b60201c565b73ffffffffffffffffffffffffffffffffffffffff168173ffffffffffffffffffffffffffffffffffffffff16837f2f8788117e7eff1d82e926ec794901d17c78024a50270940304540a733656f0d60405160405180910390a45b5050565b600062000326836000018373ffffffffffffffffffffffffffffffffffffffff1660001b620003a160201b60201c565b905092915050565b6000600a600084815260200190815260200160002060000160008373ffffffffffffffffffffffffffffffffffffffff1673ffffffffffffffffffffffffffffffffffffffff16815260200190815260200160002060009054906101000a900460ff16905092915050565b600033905090565b6000620003b583836200041b60201b60201c565b6200041057826000018290806001815401808255809150506001900390600052602060002001600090919091909150558260000180549050836001016000848152602001908152602001600020819055506001905062000415565b600090505b92915050565b600080836001016000848152602001908152602001600020541415905092915050565b8280546200044c90620006f3565b90600052602060002090601f016020900481019282620004705760008555620004bc565b82601f106200048b57805160ff1916838001178555620004bc565b82800160010185558215620004bc579182015b82811115620004bb5782518255916020019190600101906200049e565b5b509050620004cb9190620004cf565b5090565b5b80821115620004ea576000816000905550600101620004d0565b5090565b600062000505620004ff8462000653565b6200062a565b905082815260208101848484011115620005245762000523620007c2565b5b62000531848285620006bd565b509392505050565b6000815190506200054a81620007e2565b92915050565b600082601f830112620005685762000567620007bd565b5b81516200057a848260208601620004ee565b91505092915050565b600080600080600060a08688031215620005a257620005a1620007cc565b5b6000620005b28882890162000539565b9550506020620005c58882890162000539565b9450506040620005d88882890162000539565b9350506060620005eb8882890162000539565b925050608086015167ffffffffffffffff8111156200060f576200060e620007c7565b5b6200061d8882890162000550565b9150509295509295909350565b60006200063662000649565b905062000644828262000729565b919050565b6000604051905090565b600067ffffffffffffffff8211156200067157620006706200078e565b5b6200067c82620007d1565b9050602081019050919050565b600062000696826200069d565b9050919050565b600073ffffffffffffffffffffffffffffffffffffffff82169050919050565b60005b83811015620006dd578082015181840152602081019050620006c0565b83811115620006ed576000848401525b50505050565b600060028204905060018216806200070c57607f821691505b602082108114156200072357620007226200075f565b5b50919050565b6200073482620007d1565b810181811067ffffffffffffffff821117156200075657620007556200078e565b5b80604052505050565b7f4e487b7100000000000000000000000000000000000000000000000000000000600052602260045260246000fd5b7f4e487b7100000000000000000000000000000000000000000000000000000000600052604160045260246000fd5b600080fd5b600080fd5b600080fd5b600080fd5b6000601f19601f8301169050919050565b620007ed8162000689565b8114620007f957600080fd5b50565b6144dc806200080c6000396000f3fe608060405234801561001057600080fd5b50600436106101e55760003560e01c806354ba0f271161010f578063a217fddf116100a2578063ca15c87311610071578063ca15c873146105c8578063d5391393146105f8578063d547741f14610616578063e985e9c514610632576101e5565b8063a217fddf14610542578063a22cb46514610560578063b88d4fde1461057c578063c87b56dd14610598576101e5565b806387f350b8116100de57806387f350b8146104a85780639010d07c146104c457806391d14854146104f457806395d89b4114610524576101e5565b806354ba0f27146103fa5780636352211e1461042a57806370a082311461045a57806375b238fc1461048a576101e5565b8063248a9ca31161018757806336568abe1161015657806336568abe1461037657806342842e0e1461039257806342966c68146103ae5780634f6ccce7146103ca576101e5565b8063248a9ca3146102dc578063282c51f31461030c5780632f2ff15d1461032a5780632f745c5914610346576101e5565b8063095ea7b3116101c3578063095ea7b3146102685780630ab5f32a1461028457806318160ddd146102a257806323b872dd146102c0576101e5565b806301ffc9a7146101ea57806306fdde031461021a578063081812fc14610238575b600080fd5b61020460048036038101906101ff9190613327565b610662565b6040516102119190613856565b60405180910390f35b610222610674565b60405161022f919061388c565b60405180910390f35b610252600480360381019061024d91906133ca565b610706565b60405161025f91906137ef565b60405180910390f35b610282600480360381019061027d919061323a565b61074c565b005b61028c610864565b6040516102999190613871565b60405180910390f35b6102aa610888565b6040516102b79190613b0e565b60405180910390f35b6102da60048036038101906102d59190613124565b610895565b005b6102f660048036038101906102f1919061327a565b6108f5565b6040516103039190613871565b60405180910390f35b610314610915565b6040516103219190613871565b60405180910390f35b610344600480360381019061033f91906132a7565b610939565b005b610360600480360381019061035b919061323a565b61095a565b60405161036d9190613b0e565b60405180910390f35b610390600480360381019061038b91906132a7565b6109ff565b005b6103ac60048036038101906103a79190613124565b610a82565b005b6103c860048036038101906103c391906133ca565b610aa2565b005b6103e460048036038101906103df91906133ca565b610b36565b6040516103f19190613b0e565b60405180910390f35b610414600480360381019061040f91906130b7565b610ba7565b6040516104219190613b0e565b60405180910390f35b610444600480360381019061043f91906133ca565b610bff565b60405161045191906137ef565b60405180910390f35b610474600480360381019061046f91906130b7565b610c86565b6040516104819190613b0e565b60405180910390f35b610492610d3e565b60405161049f9190613871565b60405180910390f35b6104c260048036038101906104bd9190613381565b610d62565b005b6104de60048036038101906104d991906132e7565b610da7565b6040516104eb91906137ef565b60405180910390f35b61050e600480360381019061050991906132a7565b610dd6565b60405161051b9190613856565b60405180910390f35b61052c610e41565b604051610539919061388c565b60405180910390f35b61054a610ed3565b6040516105579190613871565b60405180910390f35b61057a600480360381019061057591906131fa565b610eda565b005b61059660048036038101906105919190613177565b610ef0565b005b6105b260048036038101906105ad91906133ca565b610f52565b6040516105bf919061388c565b60405180910390f35b6105e260048036038101906105dd919061327a565b610fef565b6040516105ef9190613b0e565b60405180910390f35b610600611013565b60405161060d9190613871565b60405180910390f35b610630600480360381019061062b91906132a7565b611037565b005b61064c600480360381019061064791906130e4565b611058565b6040516106599190613856565b60405180910390f35b600061066d826111fd565b9050919050565b60606000805461068390613dc1565b80601f01602080910402602001604051908101604052809291908181526020018280546106af90613dc1565b80156106fc5780601f106106d1576101008083540402835291602001916106fc565b820191906000526020600020905b8154815290600101906020018083116106df57829003601f168201915b5050505050905090565b600061071182611277565b6004600083815260200190815260200160002060009054906101000a900473ffffffffffffffffffffffffffffffffffffffff169050919050565b600061075782610bff565b90508073ffffffffffffffffffffffffffffffffffffffff168373ffffffffffffffffffffffffffffffffffffffff1614156107c8576040517f08c379a00000000000000000000000000000000000000000000000000000000081526004016107bf90613a2e565b60405180910390fd5b8073ffffffffffffffffffffffffffffffffffffffff166107e76112c2565b73ffffffffffffffffffffffffffffffffffffffff1614806108165750610815816108106112c2565b611058565b5b610855576040517f08c379a000000000000000000000000000000000000000000000000000000000815260040161084c90613a4e565b60405180910390fd5b61085f83836112ca565b505050565b7f8e6595ef9afb2a8f70320f393f567bb7a0e6c4ed483caee30f90cc5fcd6659b481565b6000600880549050905090565b6108a66108a06112c2565b82611383565b6108e5576040517f08c379a00000000000000000000000000000000000000000000000000000000081526004016108dc906138ce565b60405180910390fd5b6108f0838383611418565b505050565b6000600a6000838152602001908152602001600020600101549050919050565b7f3c11d16cbaffd01df69ce1c404f6340ee057498f5f00246190ea54220576a84881565b610942826108f5565b61094b81611712565b6109558383611726565b505050565b600061096583610c86565b82106109a6576040517f08c379a000000000000000000000000000000000000000000000000000000000815260040161099d906138ee565b60405180910390fd5b600660008473ffffffffffffffffffffffffffffffffffffffff1673ffffffffffffffffffffffffffffffffffffffff168152602001908152602001600020600083815260200190815260200160002054905092915050565b610a076112c2565b73ffffffffffffffffffffffffffffffffffffffff168173ffffffffffffffffffffffffffffffffffffffff1614610a74576040517f08c379a0000000000000000000000000000000000000000000000000000000008152600401610a6b90613aee565b60405180910390fd5b610a7e828261175a565b5050565b610a9d83838360405180602001604052806000815250610ef0565b505050565b610ad37f3c11d16cbaffd01df69ce1c404f6340ee057498f5f00246190ea54220576a848610ace6112c2565b610dd6565b80610aeb5750610aea610ae46112c2565b82611383565b5b610b2a576040517f08c379a0000000000000000000000000000000000000000000000000000000008152600401610b219061392e565b60405180910390fd5b610b338161178e565b50565b6000610b40610888565b8210610b81576040517f08c379a0000000000000000000000000000000000000000000000000000000008152600401610b7890613a6e565b60405180910390fd5b60088281548110610b9557610b94613eb1565b5b90600052602060002001549050919050565b60007f9f2df0fed2c77648de5860a4cc508cd0818c85b8b8a1ab4ceeef8d981c8956a6610bd381611712565b610bdd600c6118dc565b6000610be9600c6118f2565b9050610bf58482611900565b8092505050919050565b600080610c0b8361191e565b9050600073ffffffffffffffffffffffffffffffffffffffff168173ffffffffffffffffffffffffffffffffffffffff161415610c7d576040517f08c379a0000000000000000000000000000000000000000000000000000000008152600401610c7490613a0e565b60405180910390fd5b80915050919050565b60008073ffffffffffffffffffffffffffffffffffffffff168273ffffffffffffffffffffffffffffffffffffffff161415610cf7576040517f08c379a0000000000000000000000000000000000000000000000000000000008152600401610cee906139ce565b60405180910390fd5b600360008373ffffffffffffffffffffffffffffffffffffffff1673ffffffffffffffffffffffffffffffffffffffff168152602001908152602001600020549050919050565b7fa49807205ce4d355092ef5a8a18f56e8913cf4a201fbe287825b095693c2177581565b7f8e6595ef9afb2a8f70320f393f567bb7a0e6c4ed483caee30f90cc5fcd6659b4610d8c81611712565b81600d9080519060200190610da2929190612eb6565b505050565b6000610dce82600b600086815260200190815260200160002061195b90919063ffffffff16565b905092915050565b6000600a600084815260200190815260200160002060000160008373ffffffffffffffffffffffffffffffffffffffff1673ffffffffffffffffffffffffffffffffffffffff16815260200190815260200160002060009054906101000a900460ff16905092915050565b606060018054610e5090613dc1565b80601f0160208091040260200160405190810160405280929190818152602001828054610e7c90613dc1565b8015610ec95780601f10610e9e57610100808354040283529160200191610ec9565b820191906000526020600020905b815481529060010190602001808311610eac57829003601f168201915b5050505050905090565b6000801b81565b610eec610ee56112c2565b8383611975565b5050565b610f01610efb6112c2565b83611383565b610f40576040517f08c379a0000000000000000000000000000000000000000000000000000000008152600401610f37906138ce565b60405180910390fd5b610f4c84848484611ae2565b50505050565b6060610f5d82611277565b600d8054610f6a90613dc1565b80601f0160208091040260200160405190810160405280929190818152602001828054610f9690613dc1565b8015610fe35780601f10610fb857610100808354040283529160200191610fe3565b820191906000526020600020905b815481529060010190602001808311610fc657829003601f168201915b50505050509050919050565b600061100c600b6000848152602001908152602001600020611b3e565b9050919050565b7f9f2df0fed2c77648de5860a4cc508cd0818c85b8b8a1ab4ceeef8d981c8956a681565b611040826108f5565b61104981611712565b611053838361175a565b505050565b6000600560008473ffffffffffffffffffffffffffffffffffffffff1673ffffffffffffffffffffffffffffffffffffffff16815260200190815260200160002060008373ffffffffffffffffffffffffffffffffffffffff1673ffffffffffffffffffffffffffffffffffffffff16815260200190815260200160002060009054906101000a900460ff16905092915050565b6110f68282610dd6565b6111c9576001600a600084815260200190815260200160002060000160008373ffffffffffffffffffffffffffffffffffffffff1673ffffffffffffffffffffffffffffffffffffffff16815260200190815260200160002060006101000a81548160ff02191690831515021790555061116e6112c2565b73ffffffffffffffffffffffffffffffffffffffff168173ffffffffffffffffffffffffffffffffffffffff16837f2f8788117e7eff1d82e926ec794901d17c78024a50270940304540a733656f0d60405160405180910390a45b5050565b60006111f5836000018373ffffffffffffffffffffffffffffffffffffffff1660001b611b53565b905092915050565b60007f5a05180f000000000000000000000000000000000000000000000000000000007bffffffffffffffffffffffffffffffffffffffffffffffffffffffff1916827bffffffffffffffffffffffffffffffffffffffffffffffffffffffff19161480611270575061126f82611bc3565b5b9050919050565b61128081611c3d565b6112bf576040517f08c379a00000000000000000000000000000000000000000000000000000000081526004016112b690613a0e565b60405180910390fd5b50565b600033905090565b816004600083815260200190815260200160002060006101000a81548173ffffffffffffffffffffffffffffffffffffffff021916908373ffffffffffffffffffffffffffffffffffffffff160217905550808273ffffffffffffffffffffffffffffffffffffffff1661133d83610bff565b73ffffffffffffffffffffffffffffffffffffffff167f8c5be1e5ebec7d5bd14f71427d1e84f3dd0314c0f7b2291e5b200ac8c7c3b92560405160405180910390a45050565b60008061138f83610bff565b90508073ffffffffffffffffffffffffffffffffffffffff168473ffffffffffffffffffffffffffffffffffffffff1614806113d157506113d08185611058565b5b8061140f57508373ffffffffffffffffffffffffffffffffffffffff166113f784610706565b73ffffffffffffffffffffffffffffffffffffffff16145b91505092915050565b8273ffffffffffffffffffffffffffffffffffffffff1661143882610bff565b73ffffffffffffffffffffffffffffffffffffffff161461148e576040517f08c379a00000000000000000000000000000000000000000000000000000000081526004016114859061394e565b60405180910390fd5b600073ffffffffffffffffffffffffffffffffffffffff168273ffffffffffffffffffffffffffffffffffffffff1614156114fe576040517f08c379a00000000000000000000000000000000000000000000000000000000081526004016114f59061398e565b60405180910390fd5b61150b8383836001611c7e565b8273ffffffffffffffffffffffffffffffffffffffff1661152b82610bff565b73ffffffffffffffffffffffffffffffffffffffff1614611581576040517f08c379a00000000000000000000000000000000000000000000000000000000081526004016115789061394e565b60405180910390fd5b6004600082815260200190815260200160002060006101000a81549073ffffffffffffffffffffffffffffffffffffffff02191690556001600360008573ffffffffffffffffffffffffffffffffffffffff1673ffffffffffffffffffffffffffffffffffffffff168152602001908152602001600020600082825403925050819055506001600360008473ffffffffffffffffffffffffffffffffffffffff1673ffffffffffffffffffffffffffffffffffffffff16815260200190815260200160002060008282540192505081905550816002600083815260200190815260200160002060006101000a81548173ffffffffffffffffffffffffffffffffffffffff021916908373ffffffffffffffffffffffffffffffffffffffff160217905550808273ffffffffffffffffffffffffffffffffffffffff168473ffffffffffffffffffffffffffffffffffffffff167fddf252ad1be2c89b69c2b068fc378daa952ba7f163c4a11628f55a4df523b3ef60405160405180910390a461170d8383836001611db8565b505050565b6117238161171e6112c2565b611dbe565b50565b61173082826110ec565b61175581600b60008581526020019081526020016000206111cd90919063ffffffff16565b505050565b6117648282611e43565b61178981600b6000858152602001908152602001600020611f2590919063ffffffff16565b505050565b600061179982610bff565b90506117a9816000846001611c7e565b6117b282610bff565b90506004600083815260200190815260200160002060006101000a81549073ffffffffffffffffffffffffffffffffffffffff02191690556001600360008373ffffffffffffffffffffffffffffffffffffffff1673ffffffffffffffffffffffffffffffffffffffff168152602001908152602001600020600082825403925050819055506002600083815260200190815260200160002060006101000a81549073ffffffffffffffffffffffffffffffffffffffff021916905581600073ffffffffffffffffffffffffffffffffffffffff168273ffffffffffffffffffffffffffffffffffffffff167fddf252ad1be2c89b69c2b068fc378daa952ba7f163c4a11628f55a4df523b3ef60405160405180910390a46118d8816000846001611db8565b5050565b6001816000016000828254019250508190555050565b600081600001549050919050565b61191a828260405180602001604052806000815250611f55565b5050565b60006002600083815260200190815260200160002060009054906101000a900473ffffffffffffffffffffffffffffffffffffffff169050919050565b600061196a8360000183611fb0565b60001c905092915050565b8173ffffffffffffffffffffffffffffffffffffffff168373ffffffffffffffffffffffffffffffffffffffff1614156119e4576040517f08c379a00000000000000000000000000000000000000000000000000000000081526004016119db906139ae565b60405180910390fd5b80600560008573ffffffffffffffffffffffffffffffffffffffff1673ffffffffffffffffffffffffffffffffffffffff16815260200190815260200160002060008473ffffffffffffffffffffffffffffffffffffffff1673ffffffffffffffffffffffffffffffffffffffff16815260200190815260200160002060006101000a81548160ff0219169083151502179055508173ffffffffffffffffffffffffffffffffffffffff168373ffffffffffffffffffffffffffffffffffffffff167f17307eab39ab6107e8899845ad3d59bd9653f200f220920489ca2b5937696c3183604051611ad59190613856565b60405180910390a3505050565b611aed848484611418565b611af984848484611fdb565b611b38576040517f08c379a0000000000000000000000000000000000000000000000000000000008152600401611b2f9061390e565b60405180910390fd5b50505050565b6000611b4c82600001612172565b9050919050565b6000611b5f8383612183565b611bb8578260000182908060018154018082558091505060019003906000526020600020016000909190919091505582600001805490508360010160008481526020019081526020016000208190555060019050611bbd565b600090505b92915050565b60007f7965db0b000000000000000000000000000000000000000000000000000000007bffffffffffffffffffffffffffffffffffffffffffffffffffffffff1916827bffffffffffffffffffffffffffffffffffffffffffffffffffffffff19161480611c365750611c35826121a6565b5b9050919050565b60008073ffffffffffffffffffffffffffffffffffffffff16611c5f8361191e565b73ffffffffffffffffffffffffffffffffffffffff1614159050919050565b600073ffffffffffffffffffffffffffffffffffffffff168473ffffffffffffffffffffffffffffffffffffffff161480611ce55750600073ffffffffffffffffffffffffffffffffffffffff168373ffffffffffffffffffffffffffffffffffffffff16145b611d24576040517f08c379a0000000000000000000000000000000000000000000000000000000008152600401611d1b90613ace565b60405180910390fd5b600073ffffffffffffffffffffffffffffffffffffffff168373ffffffffffffffffffffffffffffffffffffffff161480611d6757506000611d6584610c86565b145b611da6576040517f08c379a0000000000000000000000000000000000000000000000000000000008152600401611d9d90613aae565b60405180910390fd5b611db284848484612220565b50505050565b50505050565b611dc88282610dd6565b611e3f57611dd581612380565b611de38360001c60206123ad565b604051602001611df49291906137b5565b6040516020818303038152906040526040517f08c379a0000000000000000000000000000000000000000000000000000000008152600401611e36919061388c565b60405180910390fd5b5050565b611e4d8282610dd6565b15611f21576000600a600084815260200190815260200160002060000160008373ffffffffffffffffffffffffffffffffffffffff1673ffffffffffffffffffffffffffffffffffffffff16815260200190815260200160002060006101000a81548160ff021916908315150217905550611ec66112c2565b73ffffffffffffffffffffffffffffffffffffffff168173ffffffffffffffffffffffffffffffffffffffff16837ff6391f5c32d9c69d2a47ea670b442974b53935d1edc7fd64eb21e047a839171b60405160405180910390a45b5050565b6000611f4d836000018373ffffffffffffffffffffffffffffffffffffffff1660001b6125e9565b905092915050565b611f5f83836126fd565b611f6c6000848484611fdb565b611fab576040517f08c379a0000000000000000000000000000000000000000000000000000000008152600401611fa29061390e565b60405180910390fd5b505050565b6000826000018281548110611fc857611fc7613eb1565b5b9060005260206000200154905092915050565b6000611ffc8473ffffffffffffffffffffffffffffffffffffffff1661291b565b15612165578373ffffffffffffffffffffffffffffffffffffffff1663150b7a026120256112c2565b8786866040518563ffffffff1660e01b8152600401612047949392919061380a565b602060405180830381600087803b15801561206157600080fd5b505af192505050801561209257506040513d601f19601f8201168201806040525081019061208f9190613354565b60015b612115573d80600081146120c2576040519150601f19603f3d011682016040523d82523d6000602084013e6120c7565b606091505b5060008151141561210d576040517f08c379a00000000000000000000000000000000000000000000000000000000081526004016121049061390e565b60405180910390fd5b805181602001fd5b63150b7a0260e01b7bffffffffffffffffffffffffffffffffffffffffffffffffffffffff1916817bffffffffffffffffffffffffffffffffffffffffffffffffffffffff19161491505061216a565b600190505b949350505050565b600081600001805490509050919050565b600080836001016000848152602001908152602001600020541415905092915050565b60007f780e9d63000000000000000000000000000000000000000000000000000000007bffffffffffffffffffffffffffffffffffffffffffffffffffffffff1916827bffffffffffffffffffffffffffffffffffffffffffffffffffffffff1916148061221957506122188261293e565b5b9050919050565b61222c84848484612a20565b6001811115612270576040517f08c379a000000000000000000000000000000000000000000000000000000000815260040161226790613a8e565b60405180910390fd5b6000829050600073ffffffffffffffffffffffffffffffffffffffff168573ffffffffffffffffffffffffffffffffffffffff1614156122b8576122b381612b46565b6122f7565b8373ffffffffffffffffffffffffffffffffffffffff168573ffffffffffffffffffffffffffffffffffffffff16146122f6576122f58582612b8f565b5b5b600073ffffffffffffffffffffffffffffffffffffffff168473ffffffffffffffffffffffffffffffffffffffff16141561233a5761233581612cfc565b612379565b8473ffffffffffffffffffffffffffffffffffffffff168473ffffffffffffffffffffffffffffffffffffffff1614612378576123778482612dcd565b5b5b5050505050565b60606123a68273ffffffffffffffffffffffffffffffffffffffff16601460ff166123ad565b9050919050565b6060600060028360026123c09190613c49565b6123ca9190613bf3565b67ffffffffffffffff8111156123e3576123e2613ee0565b5b6040519080825280601f01601f1916602001820160405280156124155781602001600182028036833780820191505090505b5090507f30000000000000000000000000000000000000000000000000000000000000008160008151811061244d5761244c613eb1565b5b60200101907effffffffffffffffffffffffffffffffffffffffffffffffffffffffffffff1916908160001a9053507f7800000000000000000000000000000000000000000000000000000000000000816001815181106124b1576124b0613eb1565b5b60200101907effffffffffffffffffffffffffffffffffffffffffffffffffffffffffffff1916908160001a905350600060018460026124f19190613c49565b6124fb9190613bf3565b90505b600181111561259b577f3031323334353637383961626364656600000000000000000000000000000000600f86166010811061253d5761253c613eb1565b5b1a60f81b82828151811061255457612553613eb1565b5b60200101907effffffffffffffffffffffffffffffffffffffffffffffffffffffffffffff1916908160001a905350600485901c94508061259490613d97565b90506124fe565b50600084146125df576040517f08c379a00000000000000000000000000000000000000000000000000000000081526004016125d6906138ae565b60405180910390fd5b8091505092915050565b600080836001016000848152602001908152602001600020549050600081146126f157600060018261261b9190613ca3565b90506000600186600001805490506126339190613ca3565b90508181146126a257600086600001828154811061265457612653613eb1565b5b906000526020600020015490508087600001848154811061267857612677613eb1565b5b90600052602060002001819055508387600101600083815260200190815260200160002081905550505b856000018054806126b6576126b5613e82565b5b6001900381819060005260206000200160009055905585600101600086815260200190815260200160002060009055600193505050506126f7565b60009150505b92915050565b600073ffffffffffffffffffffffffffffffffffffffff168273ffffffffffffffffffffffffffffffffffffffff16141561276d576040517f08c379a0000000000000000000000000000000000000000000000000000000008152600401612764906139ee565b60405180910390fd5b61277681611c3d565b156127b6576040517f08c379a00000000000000000000000000000000000000000000000000000000081526004016127ad9061396e565b60405180910390fd5b6127c4600083836001611c7e565b6127cd81611c3d565b1561280d576040517f08c379a00000000000000000000000000000000000000000000000000000000081526004016128049061396e565b60405180910390fd5b6001600360008473ffffffffffffffffffffffffffffffffffffffff1673ffffffffffffffffffffffffffffffffffffffff16815260200190815260200160002060008282540192505081905550816002600083815260200190815260200160002060006101000a81548173ffffffffffffffffffffffffffffffffffffffff021916908373ffffffffffffffffffffffffffffffffffffffff160217905550808273ffffffffffffffffffffffffffffffffffffffff16600073ffffffffffffffffffffffffffffffffffffffff167fddf252ad1be2c89b69c2b068fc378daa952ba7f163c4a11628f55a4df523b3ef60405160405180910390a4612917600083836001611db8565b5050565b6000808273ffffffffffffffffffffffffffffffffffffffff163b119050919050565b60007f80ac58cd000000000000000000000000000000000000000000000000000000007bffffffffffffffffffffffffffffffffffffffffffffffffffffffff1916827bffffffffffffffffffffffffffffffffffffffffffffffffffffffff19161480612a0957507f5b5e139f000000000000000000000000000000000000000000000000000000007bffffffffffffffffffffffffffffffffffffffffffffffffffffffff1916827bffffffffffffffffffffffffffffffffffffffffffffffffffffffff1916145b80612a195750612a1882612e4c565b5b9050919050565b6001811115612b4057600073ffffffffffffffffffffffffffffffffffffffff168473ffffffffffffffffffffffffffffffffffffffff1614612ab45780600360008673ffffffffffffffffffffffffffffffffffffffff1673ffffffffffffffffffffffffffffffffffffffff1681526020019081526020016000206000828254612aac9190613ca3565b925050819055505b600073ffffffffffffffffffffffffffffffffffffffff168373ffffffffffffffffffffffffffffffffffffffff1614612b3f5780600360008573ffffffffffffffffffffffffffffffffffffffff1673ffffffffffffffffffffffffffffffffffffffff1681526020019081526020016000206000828254612b379190613bf3565b925050819055505b5b50505050565b6008805490506009600083815260200190815260200160002081905550600881908060018154018082558091505060019003906000526020600020016000909190919091505550565b60006001612b9c84610c86565b612ba69190613ca3565b9050600060076000848152602001908152602001600020549050818114612c8b576000600660008673ffffffffffffffffffffffffffffffffffffffff1673ffffffffffffffffffffffffffffffffffffffff168152602001908152602001600020600084815260200190815260200160002054905080600660008773ffffffffffffffffffffffffffffffffffffffff1673ffffffffffffffffffffffffffffffffffffffff168152602001908152602001600020600084815260200190815260200160002081905550816007600083815260200190815260200160002081905550505b6007600084815260200190815260200160002060009055600660008573ffffffffffffffffffffffffffffffffffffffff1673ffffffffffffffffffffffffffffffffffffffff16815260200190815260200160002060008381526020019081526020016000206000905550505050565b60006001600880549050612d109190613ca3565b9050600060096000848152602001908152602001600020549050600060088381548110612d4057612d3f613eb1565b5b906000526020600020015490508060088381548110612d6257612d61613eb1565b5b906000526020600020018190555081600960008381526020019081526020016000208190555060096000858152602001908152602001600020600090556008805480612db157612db0613e82565b5b6001900381819060005260206000200160009055905550505050565b6000612dd883610c86565b905081600660008573ffffffffffffffffffffffffffffffffffffffff1673ffffffffffffffffffffffffffffffffffffffff168152602001908152602001600020600083815260200190815260200160002081905550806007600084815260200190815260200160002081905550505050565b60007f01ffc9a7000000000000000000000000000000000000000000000000000000007bffffffffffffffffffffffffffffffffffffffffffffffffffffffff1916827bffffffffffffffffffffffffffffffffffffffffffffffffffffffff1916149050919050565b828054612ec290613dc1565b90600052602060002090601f016020900481019282612ee45760008555612f2b565b82601f10612efd57805160ff1916838001178555612f2b565b82800160010185558215612f2b579182015b82811115612f2a578251825591602001919060010190612f0f565b5b509050612f389190612f3c565b5090565b5b80821115612f55576000816000905550600101612f3d565b5090565b6000612f6c612f6784613b4e565b613b29565b905082815260208101848484011115612f8857612f87613f14565b5b612f93848285613d55565b509392505050565b6000612fae612fa984613b7f565b613b29565b905082815260208101848484011115612fca57612fc9613f14565b5b612fd5848285613d55565b509392505050565b600081359050612fec81614433565b92915050565b6000813590506130018161444a565b92915050565b60008135905061301681614461565b92915050565b60008135905061302b81614478565b92915050565b60008151905061304081614478565b92915050565b600082601f83011261305b5761305a613f0f565b5b813561306b848260208601612f59565b91505092915050565b600082601f83011261308957613088613f0f565b5b8135613099848260208601612f9b565b91505092915050565b6000813590506130b18161448f565b92915050565b6000602082840312156130cd576130cc613f1e565b5b60006130db84828501612fdd565b91505092915050565b600080604083850312156130fb576130fa613f1e565b5b600061310985828601612fdd565b925050602061311a85828601612fdd565b9150509250929050565b60008060006060848603121561313d5761313c613f1e565b5b600061314b86828701612fdd565b935050602061315c86828701612fdd565b925050604061316d868287016130a2565b9150509250925092565b6000806000806080858703121561319157613190613f1e565b5b600061319f87828801612fdd565b94505060206131b087828801612fdd565b93505060406131c1878288016130a2565b925050606085013567ffffffffffffffff8111156131e2576131e1613f19565b5b6131ee87828801613046565b91505092959194509250565b6000806040838503121561321157613210613f1e565b5b600061321f85828601612fdd565b925050602061323085828601612ff2565b9150509250929050565b6000806040838503121561325157613250613f1e565b5b600061325f85828601612fdd565b9250506020613270858286016130a2565b9150509250929050565b6000602082840312156132905761328f613f1e565b5b600061329e84828501613007565b91505092915050565b600080604083850312156132be576132bd613f1e565b5b60006132cc85828601613007565b92505060206132dd85828601612fdd565b9150509250929050565b600080604083850312156132fe576132fd613f1e565b5b600061330c85828601613007565b925050602061331d858286016130a2565b9150509250929050565b60006020828403121561333d5761333c613f1e565b5b600061334b8482850161301c565b91505092915050565b60006020828403121561336a57613369613f1e565b5b600061337884828501613031565b91505092915050565b60006020828403121561339757613396613f1e565b5b600082013567ffffffffffffffff8111156133b5576133b4613f19565b5b6133c184828501613074565b91505092915050565b6000602082840312156133e0576133df613f1e565b5b60006133ee848285016130a2565b91505092915050565b61340081613cd7565b82525050565b61340f81613ce9565b82525050565b61341e81613cf5565b82525050565b600061342f82613bb0565b6134398185613bc6565b9350613449818560208601613d64565b61345281613f23565b840191505092915050565b600061346882613bbb565b6134728185613bd7565b9350613482818560208601613d64565b61348b81613f23565b840191505092915050565b60006134a182613bbb565b6134ab8185613be8565b93506134bb818560208601613d64565b80840191505092915050565b60006134d4602083613bd7565b91506134df82613f34565b602082019050919050565b60006134f7602d83613bd7565b915061350282613f5d565b604082019050919050565b600061351a602b83613bd7565b915061352582613fac565b604082019050919050565b600061353d603283613bd7565b915061354882613ffb565b604082019050919050565b6000613560601283613bd7565b915061356b8261404a565b602082019050919050565b6000613583602583613bd7565b915061358e82614073565b604082019050919050565b60006135a6601c83613bd7565b91506135b1826140c2565b602082019050919050565b60006135c9602483613bd7565b91506135d4826140eb565b604082019050919050565b60006135ec601983613bd7565b91506135f78261413a565b602082019050919050565b600061360f602983613bd7565b915061361a82614163565b604082019050919050565b6000613632602083613bd7565b915061363d826141b2565b602082019050919050565b6000613655601883613bd7565b9150613660826141db565b602082019050919050565b6000613678602183613bd7565b915061368382614204565b604082019050919050565b600061369b603d83613bd7565b91506136a682614253565b604082019050919050565b60006136be602c83613bd7565b91506136c9826142a2565b604082019050919050565b60006136e1601783613be8565b91506136ec826142f1565b601782019050919050565b6000613704603583613bd7565b915061370f8261431a565b604082019050919050565b6000613727601c83613bd7565b915061373282614369565b602082019050919050565b600061374a601e83613bd7565b915061375582614392565b602082019050919050565b600061376d601183613be8565b9150613778826143bb565b601182019050919050565b6000613790602f83613bd7565b915061379b826143e4565b604082019050919050565b6137af81613d4b565b82525050565b60006137c0826136d4565b91506137cc8285613496565b91506137d782613760565b91506137e38284613496565b91508190509392505050565b600060208201905061380460008301846133f7565b92915050565b600060808201905061381f60008301876133f7565b61382c60208301866133f7565b61383960408301856137a6565b818103606083015261384b8184613424565b905095945050505050565b600060208201905061386b6000830184613406565b92915050565b60006020820190506138866000830184613415565b92915050565b600060208201905081810360008301526138a6818461345d565b905092915050565b600060208201905081810360008301526138c7816134c7565b9050919050565b600060208201905081810360008301526138e7816134ea565b9050919050565b600060208201905081810360008301526139078161350d565b9050919050565b6000602082019050818103600083015261392781613530565b9050919050565b6000602082019050818103600083015261394781613553565b9050919050565b6000602082019050818103600083015261396781613576565b9050919050565b6000602082019050818103600083015261398781613599565b9050919050565b600060208201905081810360008301526139a7816135bc565b9050919050565b600060208201905081810360008301526139c7816135df565b9050919050565b600060208201905081810360008301526139e781613602565b9050919050565b60006020820190508181036000830152613a0781613625565b9050919050565b60006020820190508181036000830152613a2781613648565b9050919050565b60006020820190508181036000830152613a478161366b565b9050919050565b60006020820190508181036000830152613a678161368e565b9050919050565b60006020820190508181036000830152613a87816136b1565b9050919050565b60006020820190508181036000830152613aa7816136f7565b9050919050565b60006020820190508181036000830152613ac78161371a565b9050919050565b60006020820190508181036000830152613ae78161373d565b9050919050565b60006020820190508181036000830152613b0781613783565b9050919050565b6000602082019050613b2360008301846137a6565b92915050565b6000613b33613b44565b9050613b3f8282613df3565b919050565b6000604051905090565b600067ffffffffffffffff821115613b6957613b68613ee0565b5b613b7282613f23565b9050602081019050919050565b600067ffffffffffffffff821115613b9a57613b99613ee0565b5b613ba382613f23565b9050602081019050919050565b600081519050919050565b600081519050919050565b600082825260208201905092915050565b600082825260208201905092915050565b600081905092915050565b6000613bfe82613d4b565b9150613c0983613d4b565b9250827fffffffffffffffffffffffffffffffffffffffffffffffffffffffffffffffff03821115613c3e57613c3d613e24565b5b828201905092915050565b6000613c5482613d4b565b9150613c5f83613d4b565b9250817fffffffffffffffffffffffffffffffffffffffffffffffffffffffffffffffff0483118215151615613c9857613c97613e24565b5b828202905092915050565b6000613cae82613d4b565b9150613cb983613d4b565b925082821015613ccc57613ccb613e24565b5b828203905092915050565b6000613ce282613d2b565b9050919050565b60008115159050919050565b6000819050919050565b60007fffffffff0000000000000000000000000000000000000000000000000000000082169050919050565b600073ffffffffffffffffffffffffffffffffffffffff82169050919050565b6000819050919050565b82818337600083830152505050565b60005b83811015613d82578082015181840152602081019050613d67565b83811115613d91576000848401525b50505050565b6000613da282613d4b565b91506000821415613db657613db5613e24565b5b600182039050919050565b60006002820490506001821680613dd957607f821691505b60208210811415613ded57613dec613e53565b5b50919050565b613dfc82613f23565b810181811067ffffffffffffffff82111715613e1b57613e1a613ee0565b5b80604052505050565b7f4e487b7100000000000000000000000000000000000000000000000000000000600052601160045260246000fd5b7f4e487b7100000000000000000000000000000000000000000000000000000000600052602260045260246000fd5b7f4e487b7100000000000000000000000000000000000000000000000000000000600052603160045260246000fd5b7f4e487b7100000000000000000000000000000000000000000000000000000000600052603260045260246000fd5b7f4e487b7100000000000000000000000000000000000000000000000000000000600052604160045260246000fd5b600080fd5b600080fd5b600080fd5b600080fd5b6000601f19601f8301169050919050565b7f537472696e67733a20686578206c656e67746820696e73756666696369656e74600082015250565b7f4552433732313a2063616c6c6572206973206e6f7420746f6b656e206f776e6560008201527f72206f7220617070726f76656400000000000000000000000000000000000000602082015250565b7f455243373231456e756d657261626c653a206f776e657220696e646578206f7560008201527f74206f6620626f756e6473000000000000000000000000000000000000000000602082015250565b7f4552433732313a207472616e7366657220746f206e6f6e20455243373231526560008201527f63656976657220696d706c656d656e7465720000000000000000000000000000602082015250565b7f43616c6c65722063616e6e6f74206275726e0000000000000000000000000000600082015250565b7f4552433732313a207472616e736665722066726f6d20696e636f72726563742060008201527f6f776e6572000000000000000000000000000000000000000000000000000000602082015250565b7f4552433732313a20746f6b656e20616c7265616479206d696e74656400000000600082015250565b7f4552433732313a207472616e7366657220746f20746865207a65726f2061646460008201527f7265737300000000000000000000000000000000000000000000000000000000602082015250565b7f4552433732313a20617070726f766520746f2063616c6c657200000000000000600082015250565b7f4552433732313a2061646472657373207a65726f206973206e6f74206120766160008201527f6c6964206f776e65720000000000000000000000000000000000000000000000602082015250565b7f4552433732313a206d696e7420746f20746865207a65726f2061646472657373600082015250565b7f4552433732313a20696e76616c696420746f6b656e2049440000000000000000600082015250565b7f4552433732313a20617070726f76616c20746f2063757272656e74206f776e6560008201527f7200000000000000000000000000000000000000000000000000000000000000602082015250565b7f4552433732313a20617070726f76652063616c6c6572206973206e6f7420746f60008201527f6b656e206f776e6572206f7220617070726f76656420666f7220616c6c000000602082015250565b7f455243373231456e756d657261626c653a20676c6f62616c20696e646578206f60008201527f7574206f6620626f756e64730000000000000000000000000000000000000000602082015250565b7f416363657373436f6e74726f6c3a206163636f756e7420000000000000000000600082015250565b7f455243373231456e756d657261626c653a20636f6e736563757469766520747260008201527f616e7366657273206e6f7420737570706f727465640000000000000000000000602082015250565b7f4572723a20796f7520616c7265616479206f776e206120746f6b656e00000000600082015250565b7f4572723a20746f6b656e207472616e7366657220697320424c4f434b45440000600082015250565b7f206973206d697373696e6720726f6c6520000000000000000000000000000000600082015250565b7f416363657373436f6e74726f6c3a2063616e206f6e6c792072656e6f756e636560008201527f20726f6c657320666f722073656c660000000000000000000000000000000000602082015250565b61443c81613cd7565b811461444757600080fd5b50565b61445381613ce9565b811461445e57600080fd5b50565b61446a81613cf5565b811461447557600080fd5b50565b61448181613cff565b811461448c57600080fd5b50565b61449881613d4b565b81146144a357600080fd5b5056fea2646970667358221220c4ce8599cfdfa72b4891377edd91daeeb2616cbbc91454582154b6d3be5758be64736f6c63430008060033",
  "linkReferences": {},
  "deployedLinkReferences": {}
}